{
  "address": "0x5FbDB2315678afecb367f032d93F642f64180aa3",
  "abi": [
    {
      "anonymous": false,
      "inputs": [
        {
          "indexed": false,
          "internalType": "string",
          "name": "_title",
          "type": "string"
        }
      ],
      "name": "PollCreated",
      "type": "event"
    },
    {
      "inputs": [
        {
          "internalType": "uint256",
          "name": "",
          "type": "uint256"
        }
      ],
      "name": "PollArray",
      "outputs": [
        {
          "internalType": "contract Poll",
          "name": "",
          "type": "address"
        }
      ],
      "stateMutability": "view",
      "type": "function"
    },
    {
      "inputs": [
        {
          "internalType": "string",
          "name": "_title",
          "type": "string"
        },
        {
          "internalType": "address[]",
          "name": "_eligibles",
          "type": "address[]"
        },
        {
          "internalType": "string[]",
          "name": "_opTitle",
          "type": "string[]"
        },
        {
          "internalType": "uint256",
          "name": "_validMinutes",
          "type": "uint256"
        }
      ],
      "name": "createPoll",
      "outputs": [],
      "stateMutability": "nonpayable",
      "type": "function"
    },
    {
      "inputs": [
        {
          "internalType": "uint256",
          "name": "_pollIndex",
          "type": "uint256"
        },
        {
          "internalType": "address",
          "name": "voter",
          "type": "address"
        }
      ],
      "name": "getCredit",
      "outputs": [
        {
          "internalType": "uint256",
          "name": "",
          "type": "uint256"
        }
      ],
      "stateMutability": "view",
      "type": "function"
    },
    {
      "inputs": [],
      "name": "getNumEvents",
      "outputs": [
        {
          "internalType": "uint256",
          "name": "",
          "type": "uint256"
        }
      ],
      "stateMutability": "view",
      "type": "function"
    },
    {
      "inputs": [
        {
          "internalType": "uint256",
          "name": "_pollIndex",
          "type": "uint256"
        }
      ],
      "name": "getNumOptions",
      "outputs": [
        {
          "internalType": "uint256",
          "name": "",
          "type": "uint256"
        }
      ],
      "stateMutability": "view",
      "type": "function"
    },
    {
      "inputs": [
        {
          "internalType": "uint256",
          "name": "_pollIndex",
          "type": "uint256"
        },
        {
          "internalType": "uint256",
          "name": "optionId",
          "type": "uint256"
        }
      ],
      "name": "getOpNegativeWeight",
      "outputs": [
        {
          "internalType": "uint256",
          "name": "",
          "type": "uint256"
        }
      ],
      "stateMutability": "view",
      "type": "function"
    },
    {
      "inputs": [
        {
          "internalType": "uint256",
          "name": "_pollIndex",
          "type": "uint256"
        },
        {
          "internalType": "uint256",
          "name": "optionId",
          "type": "uint256"
        }
      ],
      "name": "getOpPositiveWeight",
      "outputs": [
        {
          "internalType": "uint256",
          "name": "",
          "type": "uint256"
        }
      ],
      "stateMutability": "view",
      "type": "function"
    },
    {
      "inputs": [
        {
          "internalType": "uint256",
          "name": "_pollIndex",
          "type": "uint256"
        },
        {
          "internalType": "uint256",
          "name": "optionId",
          "type": "uint256"
        }
      ],
      "name": "getOpTitle",
      "outputs": [
        {
          "internalType": "string",
          "name": "",
          "type": "string"
        }
      ],
      "stateMutability": "view",
      "type": "function"
    },
    {
      "inputs": [
        {
          "internalType": "uint256",
          "name": "_pollIndex",
          "type": "uint256"
        }
      ],
      "name": "getTitle",
      "outputs": [
        {
          "internalType": "string",
          "name": "",
          "type": "string"
        }
      ],
      "stateMutability": "view",
      "type": "function"
    },
    {
      "inputs": [
        {
          "internalType": "uint256",
          "name": "_pollIndex",
          "type": "uint256"
        },
        {
          "internalType": "uint256",
          "name": "optionId",
          "type": "uint256"
        }
      ],
      "name": "getVoterOpNegativeWeight",
      "outputs": [
        {
          "internalType": "uint256",
          "name": "",
          "type": "uint256"
        }
      ],
      "stateMutability": "view",
      "type": "function"
    },
    {
      "inputs": [
        {
          "internalType": "uint256",
          "name": "_pollIndex",
          "type": "uint256"
        },
        {
          "internalType": "uint256",
          "name": "optionId",
          "type": "uint256"
        }
      ],
      "name": "getVoterOpPositiveWeight",
      "outputs": [
        {
          "internalType": "uint256",
          "name": "",
          "type": "uint256"
        }
      ],
      "stateMutability": "view",
      "type": "function"
    },
    {
      "inputs": [],
      "name": "getcurrentTime",
      "outputs": [
        {
          "internalType": "uint256",
          "name": "",
          "type": "uint256"
        }
      ],
      "stateMutability": "view",
      "type": "function"
    },
    {
      "inputs": [
        {
          "internalType": "uint256",
          "name": "_pollIndex",
          "type": "uint256"
        }
      ],
      "name": "getdeployTime",
      "outputs": [
        {
          "internalType": "uint256",
          "name": "",
          "type": "uint256"
        }
      ],
      "stateMutability": "view",
      "type": "function"
    },
    {
      "inputs": [
        {
          "internalType": "uint256",
          "name": "_pollIndex",
          "type": "uint256"
        }
      ],
      "name": "getresult",
      "outputs": [
        {
          "internalType": "uint256",
          "name": "",
          "type": "uint256"
        }
      ],
      "stateMutability": "view",
      "type": "function"
    },
    {
      "inputs": [
        {
          "internalType": "uint256",
          "name": "_pollIndex",
          "type": "uint256"
        }
      ],
      "name": "getvalidSeconds",
      "outputs": [
        {
          "internalType": "uint256",
          "name": "",
          "type": "uint256"
        }
      ],
      "stateMutability": "view",
      "type": "function"
    },
    {
      "inputs": [
        {
          "internalType": "uint256",
          "name": "",
          "type": "uint256"
        }
      ],
      "name": "isActive",
      "outputs": [
        {
          "internalType": "bool",
          "name": "",
          "type": "bool"
        }
      ],
      "stateMutability": "view",
      "type": "function"
    },
    {
      "inputs": [
        {
          "internalType": "uint256",
          "name": "_pollIndex",
          "type": "uint256"
        },
        {
          "internalType": "uint256",
          "name": "_optionIndex",
          "type": "uint256"
        },
        {
          "internalType": "uint256",
          "name": "_num",
          "type": "uint256"
        }
      ],
      "name": "negativeVote",
      "outputs": [],
      "stateMutability": "nonpayable",
      "type": "function"
    },
    {
      "inputs": [
        {
          "internalType": "uint256",
          "name": "_pollIndex",
          "type": "uint256"
        },
        {
          "internalType": "uint256",
          "name": "_optionIndex",
          "type": "uint256"
        },
        {
          "internalType": "uint256",
          "name": "_num",
          "type": "uint256"
        }
      ],
      "name": "positiveVote",
      "outputs": [],
      "stateMutability": "nonpayable",
      "type": "function"
    },
    {
      "inputs": [
        {
          "internalType": "uint256",
          "name": "_pollIndex",
          "type": "uint256"
        }
      ],
      "name": "publishResult",
      "outputs": [],
      "stateMutability": "nonpayable",
      "type": "function"
    },
    {
      "inputs": [
        {
          "internalType": "uint256",
          "name": "",
          "type": "uint256"
        }
      ],
      "name": "results",
      "outputs": [
        {
          "internalType": "uint256",
          "name": "",
          "type": "uint256"
        }
      ],
      "stateMutability": "view",
      "type": "function"
    }
  ],
  "transactionHash": "0xf90bdb019d5b79b503b864b82dbbf4d18a3119de7c7685ccdf7d2df7ce5ee9ed",
  "args": [],
  "numDeployments": 1,
  "solcInputHash": "26781fd53fedbd8e9976fd25c01b53ec",
  "bytecode": "0x6080604052600060035534801561001557600080fd5b50614852806100256000396000f3fe60806040523480156200001157600080fd5b5060043610620001485760003560e01c806382afd23b11620000bd578063d5a0580e116200007b578063d5a0580e146200040d578063deb84df71462000443578063df8704aa1462000463578063edeb797c1462000499578063efbcb97214620004cf5762000148565b806382afd23b14620003295780638f6f0698146200035f578063929a79b1146200038157806392e821a514620003b7578063d1b878e914620003d75762000148565b80633a467eea116200010b5780633a467eea146200025b57806352e35d4c146200027b578063625ac7e514620002b15780636c9c7c6014620002d35780637229eec914620002f35762000148565b8063059a7f62146200014d5780631a3c8b6f14620001835780631b0c27da14620001b95780631c8a7ffa14620001ef5780631e9df9401462000225575b600080fd5b6200016b600480360381019062000165919062001377565b62000505565b6040516200017a919062001458565b60405180910390f35b620001a160048036038101906200019b9190620014e1565b620005d4565b604051620001b0919062001539565b60405180910390f35b620001d76004803603810190620001d1919062001556565b6200069d565b604051620001e6919062001539565b60405180910390f35b6200020d600480360381019062000207919062001377565b620006c2565b6040516200021c919062001539565b60405180910390f35b6200024360048036038101906200023d919062001377565b6200078d565b60405162000252919062001539565b60405180910390f35b62000279600480360381019062000273919062001588565b62000858565b005b62000299600480360381019062000293919062001556565b62000991565b604051620002a8919062001539565b60405180910390f35b620002bb62000a4c565b604051620002ca919062001539565b60405180910390f35b620002f16004803603810190620002eb919062001588565b62000a58565b005b6200031160048036038101906200030b919062001556565b62000b91565b6040516200032091906200164f565b60405180910390f35b62000347600480360381019062000341919062001556565b62000bd1565b60405162000356919062001689565b60405180910390f35b6200036962000c06565b60405162000378919062001539565b60405180910390f35b6200039f600480360381019062000399919062001556565b62000c0e565b604051620003ae919062001458565b60405180910390f35b620003d56004803603810190620003cf919062001556565b62000ccf565b005b620003f56004803603810190620003ef919062001556565b62000e08565b60405162000404919062001539565b60405180910390f35b6200042b600480360381019062000425919062001556565b62000ec3565b6040516200043a919062001539565b60405180910390f35b6200046160048036038101906200045b9190620019c9565b62000f7e565b005b6200048160048036038101906200047b919062001377565b620010cd565b60405162000490919062001539565b60405180910390f35b620004b76004803603810190620004b1919062001556565b62001196565b604051620004c6919062001539565b60405180910390f35b620004ed6004803603810190620004e7919062001377565b62001251565b604051620004fc919062001539565b60405180910390f35b6060600083815481106200051e576200051d62001a98565b5b9060005260206000200160009054906101000a900473ffffffffffffffffffffffffffffffffffffffff1673ffffffffffffffffffffffffffffffffffffffff16639df10dff836040518263ffffffff1660e01b815260040162000583919062001539565b600060405180830381865afa158015620005a1573d6000803e3d6000fd5b505050506040513d6000823e3d601f19601f82011682018060405250810190620005cc919062001b45565b905092915050565b6000808381548110620005ec57620005eb62001a98565b5b9060005260206000200160009054906101000a900473ffffffffffffffffffffffffffffffffffffffff1673ffffffffffffffffffffffffffffffffffffffff166357344e6f836040518263ffffffff1660e01b815260040162000651919062001ba7565b602060405180830381865afa1580156200066f573d6000803e3d6000fd5b505050506040513d601f19601f8201168201806040525081019062000695919062001bdb565b905092915050565b60028181548110620006ae57600080fd5b906000526020600020016000915090505481565b6000808381548110620006da57620006d962001a98565b5b9060005260206000200160009054906101000a900473ffffffffffffffffffffffffffffffffffffffff1673ffffffffffffffffffffffffffffffffffffffff1663b6c9ebbb83336040518363ffffffff1660e01b81526004016200074192919062001c0d565b602060405180830381865afa1580156200075f573d6000803e3d6000fd5b505050506040513d601f19601f8201168201806040525081019062000785919062001bdb565b905092915050565b6000808381548110620007a557620007a462001a98565b5b9060005260206000200160009054906101000a900473ffffffffffffffffffffffffffffffffffffffff1673ffffffffffffffffffffffffffffffffffffffff16639fd18e8883336040518363ffffffff1660e01b81526004016200080c92919062001c0d565b602060405180830381865afa1580156200082a573d6000803e3d6000fd5b505050506040513d601f19601f8201168201806040525081019062000850919062001bdb565b905092915050565b600115156001848154811062000873576200087262001a98565b5b90600052602060002090602091828204019190069054906101000a900460ff16151514620008d8576040517f08c379a0000000000000000000000000000000000000000000000000000000008152600401620008cf9062001c8a565b60405180910390fd5b60008381548110620008ef57620008ee62001a98565b5b9060005260206000200160009054906101000a900473ffffffffffffffffffffffffffffffffffffffff1673ffffffffffffffffffffffffffffffffffffffff16634e28b8093384846040518463ffffffff1660e01b8152600401620009589392919062001cac565b600060405180830381600087803b1580156200097357600080fd5b505af115801562000988573d6000803e3d6000fd5b50505050505050565b6000808281548110620009a957620009a862001a98565b5b9060005260206000200160009054906101000a900473ffffffffffffffffffffffffffffffffffffffff1673ffffffffffffffffffffffffffffffffffffffff1663018432b66040518163ffffffff1660e01b8152600401602060405180830381865afa15801562000a1f573d6000803e3d6000fd5b505050506040513d601f19601f8201168201806040525081019062000a45919062001bdb565b9050919050565b60008080549050905090565b600115156001848154811062000a735762000a7262001a98565b5b90600052602060002090602091828204019190069054906101000a900460ff1615151462000ad8576040517f08c379a000000000000000000000000000000000000000000000000000000000815260040162000acf9062001c8a565b60405180910390fd5b6000838154811062000aef5762000aee62001a98565b5b9060005260206000200160009054906101000a900473ffffffffffffffffffffffffffffffffffffffff1673ffffffffffffffffffffffffffffffffffffffff1663a44290de3384846040518463ffffffff1660e01b815260040162000b589392919062001cac565b600060405180830381600087803b15801562000b7357600080fd5b505af115801562000b88573d6000803e3d6000fd5b50505050505050565b6000818154811062000ba257600080fd5b906000526020600020016000915054906101000a900473ffffffffffffffffffffffffffffffffffffffff1681565b6001818154811062000be257600080fd5b9060005260206000209060209182820401919006915054906101000a900460ff1681565b600042905090565b60606000828154811062000c275762000c2662001a98565b5b9060005260206000200160009054906101000a900473ffffffffffffffffffffffffffffffffffffffff1673ffffffffffffffffffffffffffffffffffffffff16634a79d50c6040518163ffffffff1660e01b8152600401600060405180830381865afa15801562000c9d573d6000803e3d6000fd5b505050506040513d6000823e3d601f19601f8201168201806040525081019062000cc8919062001b45565b9050919050565b60016003600082825462000ce4919062001d18565b925050819055506000818154811062000d025762000d0162001a98565b5b9060005260206000200160009054906101000a900473ffffffffffffffffffffffffffffffffffffffff1673ffffffffffffffffffffffffffffffffffffffff1663de2927896040518163ffffffff1660e01b8152600401602060405180830381865afa15801562000d78573d6000803e3d6000fd5b505050506040513d601f19601f8201168201806040525081019062000d9e919062001bdb565b6002828154811062000db55762000db462001a98565b5b906000526020600020018190555060006001828154811062000ddc5762000ddb62001a98565b5b90600052602060002090602091828204019190066101000a81548160ff02191690831515021790555050565b600080828154811062000e205762000e1f62001a98565b5b9060005260206000200160009054906101000a900473ffffffffffffffffffffffffffffffffffffffff1673ffffffffffffffffffffffffffffffffffffffff1663de2927896040518163ffffffff1660e01b8152600401602060405180830381865afa15801562000e96573d6000803e3d6000fd5b505050506040513d601f19601f8201168201806040525081019062000ebc919062001bdb565b9050919050565b600080828154811062000edb5762000eda62001a98565b5b9060005260206000200160009054906101000a900473ffffffffffffffffffffffffffffffffffffffff1673ffffffffffffffffffffffffffffffffffffffff16637a40624b6040518163ffffffff1660e01b8152600401602060405180830381865afa15801562000f51573d6000803e3d6000fd5b505050506040513d601f19601f8201168201806040525081019062000f77919062001bdb565b9050919050565b6000338585858560405162000f93906200131a565b62000fa395949392919062001f43565b604051809103906000f08015801562000fc0573d6000803e3d6000fd5b509080600181540180825580915050600190039060005260206000200160009091909190916101000a81548173ffffffffffffffffffffffffffffffffffffffff021916908373ffffffffffffffffffffffffffffffffffffffff1602179055507f9bf8745d989aef219097b36114b7e27d7f74b56a6e55ab898a6c4e4a0489f7588460405162001052919062001458565b60405180910390a1600180806001815401808255809150506001900390600052602060002090602091828204019190069091909190916101000a81548160ff02191690831515021790555060026000908060018154018082558091505060019003906000526020600020016000909190919091505550505050565b6000808381548110620010e557620010e462001a98565b5b9060005260206000200160009054906101000a900473ffffffffffffffffffffffffffffffffffffffff1673ffffffffffffffffffffffffffffffffffffffff166340069e7b836040518263ffffffff1660e01b81526004016200114a919062001539565b602060405180830381865afa15801562001168573d6000803e3d6000fd5b505050506040513d601f19601f820116820180604052508101906200118e919062001bdb565b905092915050565b6000808281548110620011ae57620011ad62001a98565b5b9060005260206000200160009054906101000a900473ffffffffffffffffffffffffffffffffffffffff1673ffffffffffffffffffffffffffffffffffffffff1663e32fe90b6040518163ffffffff1660e01b8152600401602060405180830381865afa15801562001224573d6000803e3d6000fd5b505050506040513d601f19601f820116820180604052508101906200124a919062001bdb565b9050919050565b600080838154811062001269576200126862001a98565b5b9060005260206000200160009054906101000a900473ffffffffffffffffffffffffffffffffffffffff1673ffffffffffffffffffffffffffffffffffffffff16637f2af6d5836040518263ffffffff1660e01b8152600401620012ce919062001539565b602060405180830381865afa158015620012ec573d6000803e3d6000fd5b505050506040513d601f19601f8201168201806040525081019062001312919062001bdb565b905092915050565b6128678062001fb683390190565b6000604051905090565b600080fd5b600080fd5b6000819050919050565b62001351816200133c565b81146200135d57600080fd5b50565b600081359050620013718162001346565b92915050565b6000806040838503121562001391576200139062001332565b5b6000620013a18582860162001360565b9250506020620013b48582860162001360565b9150509250929050565b600081519050919050565b600082825260208201905092915050565b60005b83811015620013fa578082015181840152602081019050620013dd565b60008484015250505050565b6000601f19601f8301169050919050565b60006200142482620013be565b620014308185620013c9565b935062001442818560208601620013da565b6200144d8162001406565b840191505092915050565b6000602082019050818103600083015262001474818462001417565b905092915050565b600073ffffffffffffffffffffffffffffffffffffffff82169050919050565b6000620014a9826200147c565b9050919050565b620014bb816200149c565b8114620014c757600080fd5b50565b600081359050620014db81620014b0565b92915050565b60008060408385031215620014fb57620014fa62001332565b5b60006200150b8582860162001360565b92505060206200151e85828601620014ca565b9150509250929050565b62001533816200133c565b82525050565b600060208201905062001550600083018462001528565b92915050565b6000602082840312156200156f576200156e62001332565b5b60006200157f8482850162001360565b91505092915050565b600080600060608486031215620015a457620015a362001332565b5b6000620015b48682870162001360565b9350506020620015c78682870162001360565b9250506040620015da8682870162001360565b9150509250925092565b6000819050919050565b60006200160f6200160962001603846200147c565b620015e4565b6200147c565b9050919050565b60006200162382620015ee565b9050919050565b6000620016378262001616565b9050919050565b62001649816200162a565b82525050565b60006020820190506200166660008301846200163e565b92915050565b60008115159050919050565b62001683816200166c565b82525050565b6000602082019050620016a0600083018462001678565b92915050565b600080fd5b600080fd5b7f4e487b7100000000000000000000000000000000000000000000000000000000600052604160045260246000fd5b620016ea8262001406565b810181811067ffffffffffffffff821117156200170c576200170b620016b0565b5b80604052505050565b60006200172162001328565b90506200172f8282620016df565b919050565b600067ffffffffffffffff821115620017525762001751620016b0565b5b6200175d8262001406565b9050602081019050919050565b82818337600083830152505050565b6000620017906200178a8462001734565b62001715565b905082815260208101848484011115620017af57620017ae620016ab565b5b620017bc8482856200176a565b509392505050565b600082601f830112620017dc57620017db620016a6565b5b8135620017ee84826020860162001779565b91505092915050565b600067ffffffffffffffff821115620018155762001814620016b0565b5b602082029050602081019050919050565b600080fd5b6000620018426200183c84620017f7565b62001715565b9050808382526020820190506020840283018581111562001868576200186762001826565b5b835b81811015620018955780620018808882620014ca565b8452602084019350506020810190506200186a565b5050509392505050565b600082601f830112620018b757620018b6620016a6565b5b8135620018c98482602086016200182b565b91505092915050565b600067ffffffffffffffff821115620018f057620018ef620016b0565b5b602082029050602081019050919050565b6000620019186200191284620018d2565b62001715565b905080838252602082019050602084028301858111156200193e576200193d62001826565b5b835b818110156200198c57803567ffffffffffffffff811115620019675762001966620016a6565b5b808601620019768982620017c4565b8552602085019450505060208101905062001940565b5050509392505050565b600082601f830112620019ae57620019ad620016a6565b5b8135620019c084826020860162001901565b91505092915050565b60008060008060808587031215620019e657620019e562001332565b5b600085013567ffffffffffffffff81111562001a075762001a0662001337565b5b62001a1587828801620017c4565b945050602085013567ffffffffffffffff81111562001a395762001a3862001337565b5b62001a47878288016200189f565b935050604085013567ffffffffffffffff81111562001a6b5762001a6a62001337565b5b62001a798782880162001996565b925050606062001a8c8782880162001360565b91505092959194509250565b7f4e487b7100000000000000000000000000000000000000000000000000000000600052603260045260246000fd5b600062001ade62001ad88462001734565b62001715565b90508281526020810184848401111562001afd5762001afc620016ab565b5b62001b0a848285620013da565b509392505050565b600082601f83011262001b2a5762001b29620016a6565b5b815162001b3c84826020860162001ac7565b91505092915050565b60006020828403121562001b5e5762001b5d62001332565b5b600082015167ffffffffffffffff81111562001b7f5762001b7e62001337565b5b62001b8d8482850162001b12565b91505092915050565b62001ba1816200149c565b82525050565b600060208201905062001bbe600083018462001b96565b92915050565b60008151905062001bd58162001346565b92915050565b60006020828403121562001bf45762001bf362001332565b5b600062001c048482850162001bc4565b91505092915050565b600060408201905062001c24600083018562001528565b62001c33602083018462001b96565b9392505050565b7f54696d65277320757020666f72207468697320706f6c6c20616c726561647921600082015250565b600062001c72602083620013c9565b915062001c7f8262001c3a565b602082019050919050565b6000602082019050818103600083015262001ca58162001c63565b9050919050565b600060608201905062001cc3600083018662001b96565b62001cd2602083018562001528565b62001ce1604083018462001528565b949350505050565b7f4e487b7100000000000000000000000000000000000000000000000000000000600052601160045260246000fd5b600062001d25826200133c565b915062001d32836200133c565b925082820190508082111562001d4d5762001d4c62001ce9565b5b92915050565b600081519050919050565b600082825260208201905092915050565b6000819050602082019050919050565b62001d8a816200149c565b82525050565b600062001d9e838362001d7f565b60208301905092915050565b6000602082019050919050565b600062001dc48262001d53565b62001dd0818562001d5e565b935062001ddd8362001d6f565b8060005b8381101562001e1457815162001df8888262001d90565b975062001e058362001daa565b92505060018101905062001de1565b5085935050505092915050565b600081519050919050565b600082825260208201905092915050565b6000819050602082019050919050565b600082825260208201905092915050565b600062001e6b82620013be565b62001e77818562001e4d565b935062001e89818560208601620013da565b62001e948162001406565b840191505092915050565b600062001ead838362001e5e565b905092915050565b6000602082019050919050565b600062001ecf8262001e21565b62001edb818562001e2c565b93508360208202850162001eef8562001e3d565b8060005b8581101562001f31578484038952815162001f0f858262001e9f565b945062001f1c8362001eb5565b925060208a0199505060018101905062001ef3565b50829750879550505050505092915050565b600060a08201905062001f5a600083018862001b96565b818103602083015262001f6e818762001417565b9050818103604083015262001f84818662001db7565b9050818103606083015262001f9a818562001ec2565b905062001fab608083018462001528565b969550505050505056fe608060405260646004553480156200001657600080fd5b50604051620028673803806200286783398181016040528101906200003c9190620006bf565b33600660006101000a81548173ffffffffffffffffffffffffffffffffffffffff021916908373ffffffffffffffffffffffffffffffffffffffff16021790555084600760006101000a81548173ffffffffffffffffffffffffffffffffffffffff021916908373ffffffffffffffffffffffffffffffffffffffff1602179055508360089081620000cf9190620009e5565b508260099080519060200190620000e89291906200020c565b50815160038190555042600081905550603c8162000107919062000afb565b60018190555060005b835181101562000193576004546005600086848151811062000137576200013662000b46565b5b602002602001015173ffffffffffffffffffffffffffffffffffffffff1673ffffffffffffffffffffffffffffffffffffffff1681526020019081526020016000208190555080806200018a9062000b75565b91505062000110565b5060005b825181101562000200576000600260008381526020019081526020016000209050838281518110620001ce57620001cd62000b46565b5b6020026020010151816000019081620001e89190620009e5565b50508080620001f79062000b75565b91505062000197565b50505050505062000bc2565b82805482825590600052602060002090810192821562000288579160200282015b82811115620002875782518260006101000a81548173ffffffffffffffffffffffffffffffffffffffff021916908373ffffffffffffffffffffffffffffffffffffffff160217905550916020019190600101906200022d565b5b5090506200029791906200029b565b5090565b5b80821115620002b65760008160009055506001016200029c565b5090565b6000604051905090565b600080fd5b600080fd5b600073ffffffffffffffffffffffffffffffffffffffff82169050919050565b6000620002fb82620002ce565b9050919050565b6200030d81620002ee565b81146200031957600080fd5b50565b6000815190506200032d8162000302565b92915050565b600080fd5b600080fd5b6000601f19601f8301169050919050565b7f4e487b7100000000000000000000000000000000000000000000000000000000600052604160045260246000fd5b62000388826200033d565b810181811067ffffffffffffffff82111715620003aa57620003a96200034e565b5b80604052505050565b6000620003bf620002ba565b9050620003cd82826200037d565b919050565b600067ffffffffffffffff821115620003f057620003ef6200034e565b5b620003fb826200033d565b9050602081019050919050565b60005b83811015620004285780820151818401526020810190506200040b565b60008484015250505050565b60006200044b6200044584620003d2565b620003b3565b9050828152602081018484840111156200046a576200046962000338565b5b6200047784828562000408565b509392505050565b600082601f83011262000497576200049662000333565b5b8151620004a984826020860162000434565b91505092915050565b600067ffffffffffffffff821115620004d057620004cf6200034e565b5b602082029050602081019050919050565b600080fd5b6000620004fd620004f784620004b2565b620003b3565b90508083825260208201905060208402830185811115620005235762000522620004e1565b5b835b818110156200055057806200053b88826200031c565b84526020840193505060208101905062000525565b5050509392505050565b600082601f83011262000572576200057162000333565b5b815162000584848260208601620004e6565b91505092915050565b600067ffffffffffffffff821115620005ab57620005aa6200034e565b5b602082029050602081019050919050565b6000620005d3620005cd846200058d565b620003b3565b90508083825260208201905060208402830185811115620005f957620005f8620004e1565b5b835b818110156200064757805167ffffffffffffffff81111562000622576200062162000333565b5b8086016200063189826200047f565b85526020850194505050602081019050620005fb565b5050509392505050565b600082601f83011262000669576200066862000333565b5b81516200067b848260208601620005bc565b91505092915050565b6000819050919050565b620006998162000684565b8114620006a557600080fd5b50565b600081519050620006b9816200068e565b92915050565b600080600080600060a08688031215620006de57620006dd620002c4565b5b6000620006ee888289016200031c565b955050602086015167ffffffffffffffff811115620007125762000711620002c9565b5b62000720888289016200047f565b945050604086015167ffffffffffffffff811115620007445762000743620002c9565b5b62000752888289016200055a565b935050606086015167ffffffffffffffff811115620007765762000775620002c9565b5b620007848882890162000651565b92505060806200079788828901620006a8565b9150509295509295909350565b600081519050919050565b7f4e487b7100000000000000000000000000000000000000000000000000000000600052602260045260246000fd5b60006002820490506001821680620007f757607f821691505b6020821081036200080d576200080c620007af565b5b50919050565b60008190508160005260206000209050919050565b60006020601f8301049050919050565b600082821b905092915050565b600060088302620008777fffffffffffffffffffffffffffffffffffffffffffffffffffffffffffffffff8262000838565b62000883868362000838565b95508019841693508086168417925050509392505050565b6000819050919050565b6000620008c6620008c0620008ba8462000684565b6200089b565b62000684565b9050919050565b6000819050919050565b620008e283620008a5565b620008fa620008f182620008cd565b84845462000845565b825550505050565b600090565b6200091162000902565b6200091e818484620008d7565b505050565b5b8181101562000946576200093a60008262000907565b60018101905062000924565b5050565b601f82111562000995576200095f8162000813565b6200096a8462000828565b810160208510156200097a578190505b62000992620009898562000828565b83018262000923565b50505b505050565b600082821c905092915050565b6000620009ba600019846008026200099a565b1980831691505092915050565b6000620009d58383620009a7565b9150826002028217905092915050565b620009f082620007a4565b67ffffffffffffffff81111562000a0c5762000a0b6200034e565b5b62000a188254620007de565b62000a258282856200094a565b600060209050601f83116001811462000a5d576000841562000a48578287015190505b62000a548582620009c7565b86555062000ac4565b601f19841662000a6d8662000813565b60005b8281101562000a975784890151825560018201915060208501945060208101905062000a70565b8683101562000ab7578489015162000ab3601f891682620009a7565b8355505b6001600288020188555050505b505050505050565b7f4e487b7100000000000000000000000000000000000000000000000000000000600052601160045260246000fd5b600062000b088262000684565b915062000b158362000684565b925082820262000b258162000684565b9150828204841483151762000b3f5762000b3e62000acc565b5b5092915050565b7f4e487b7100000000000000000000000000000000000000000000000000000000600052603260045260246000fd5b600062000b828262000684565b91507fffffffffffffffffffffffffffffffffffffffffffffffffffffffffffffffff820362000bb75762000bb662000acc565b5b600182019050919050565b611c958062000bd26000396000f3fe6080604052600436106101355760003560e01c80639df10dff116100ab578063c2b939fe1161006f578063c2b939fe14610470578063d7921a5b1461049b578063de292789146104d8578063e32fe90b14610503578063f5f52f901461052e578063f851a4401461056b57610135565b80639df10dff146103605780639e3368941461039d5780639fd18e88146103da578063a44290de14610417578063b6c9ebbb1461043357610135565b80634a79d50c116100fd5780634a79d50c146102495780634c1b8ffd146102745780634e28b8091461029f57806357344e6f146102bb5780637a40624b146102f85780637f2af6d51461032357610135565b8063018432b61461013a57806327d4dbe91461016557806340069e7b14610190578063409e2205146101cd578063473a6d521461020c575b600080fd5b34801561014657600080fd5b5061014f610596565b60405161015c91906114f6565b60405180910390f35b34801561017157600080fd5b5061017a61059c565b60405161018791906114f6565b60405180910390f35b34801561019c57600080fd5b506101b760048036038101906101b29190611542565b6105a2565b6040516101c491906114f6565b60405180910390f35b3480156101d957600080fd5b506101f460048036038101906101ef9190611542565b6105c2565b604051610203939291906115ff565b60405180910390f35b34801561021857600080fd5b50610233600480360381019061022e9190611542565b610674565b60405161024091906114f6565b60405180910390f35b34801561025557600080fd5b5061025e610695565b60405161026b919061163d565b60405180910390f35b34801561028057600080fd5b50610289610723565b60405161029691906114f6565b60405180910390f35b6102b960048036038101906102b491906116bd565b610728565b005b3480156102c757600080fd5b506102e260048036038101906102dd9190611710565b610b7c565b6040516102ef91906114f6565b60405180910390f35b34801561030457600080fd5b5061030d610bc5565b60405161031a91906114f6565b60405180910390f35b34801561032f57600080fd5b5061034a60048036038101906103459190611542565b610bcb565b60405161035791906114f6565b60405180910390f35b34801561036c57600080fd5b5061038760048036038101906103829190611542565b610beb565b604051610394919061163d565b60405180910390f35b3480156103a957600080fd5b506103c460048036038101906103bf9190611710565b610c93565b6040516103d19190611758565b60405180910390f35b3480156103e657600080fd5b5061040160048036038101906103fc9190611773565b610d41565b60405161040e91906114f6565b60405180910390f35b610431600480360381019061042c91906116bd565b610d9f565b005b34801561043f57600080fd5b5061045a60048036038101906104559190611773565b6111f3565b60405161046791906114f6565b60405180910390f35b34801561047c57600080fd5b50610485611251565b60405161049291906114f6565b60405180910390f35b3480156104a757600080fd5b506104c260048036038101906104bd91906117df565b6112b8565b6040516104cf91906114f6565b60405180910390f35b3480156104e457600080fd5b506104ed611379565b6040516104fa91906114f6565b60405180910390f35b34801561050f57600080fd5b50610518611499565b60405161052591906114f6565b60405180910390f35b34801561053a57600080fd5b5061055560048036038101906105509190611710565b61149f565b60405161056291906114f6565b60405180910390f35b34801561057757600080fd5b506105806114b7565b60405161058d9190611841565b60405180910390f35b60015481565b60045481565b600060026000838152602001908152602001600020600301549050919050565b60026020528060005260406000206000915090508060000180546105e59061188b565b80601f01602080910402602001604051908101604052809291908181526020018280546106119061188b565b801561065e5780601f106106335761010080835404028352916020019161065e565b820191906000526020600020905b81548152906001019060200180831161064157829003601f168201915b5050505050908060030154908060040154905083565b60006001828361068491906118eb565b61068e91906118eb565b9050919050565b600880546106a29061188b565b80601f01602080910402602001604051908101604052809291908181526020018280546106ce9061188b565b801561071b5780601f106106f05761010080835404028352916020019161071b565b820191906000526020600020905b8154815290600101906020018083116106fe57829003601f168201915b505050505081565b600181565b600660009054906101000a900473ffffffffffffffffffffffffffffffffffffffff1673ffffffffffffffffffffffffffffffffffffffff163373ffffffffffffffffffffffffffffffffffffffff16146107b8576040517f08c379a00000000000000000000000000000000000000000000000000000000081526004016107af90611979565b60405180910390fd5b6107c183610c93565b610800576040517f08c379a00000000000000000000000000000000000000000000000000000000081526004016107f7906119e5565b60405180910390fd5b60006002600084815260200190815260200160002090506000808260010160008773ffffffffffffffffffffffffffffffffffffffff1673ffffffffffffffffffffffffffffffffffffffff168152602001908152602001600020541161086857600061086b565b60015b90506000816108bb578260020160008773ffffffffffffffffffffffffffffffffffffffff1673ffffffffffffffffffffffffffffffffffffffff168152602001908152602001600020546108fe565b8260010160008773ffffffffffffffffffffffffffffffffffffffff1673ffffffffffffffffffffffffffffffffffffffff168152602001908152602001600020545b905061090984610674565b61091282610674565b600560008973ffffffffffffffffffffffffffffffffffffffff1673ffffffffffffffffffffffffffffffffffffffff1681526020019081526020016000205461095c9190611a05565b101561099d576040517f08c379a000000000000000000000000000000000000000000000000000000000815260040161099490611a85565b60405180910390fd5b6109a684610674565b6109af82610674565b600560008973ffffffffffffffffffffffffffffffffffffffff1673ffffffffffffffffffffffffffffffffffffffff168152602001908152602001600020546109f99190611a05565b610a039190611aa5565b600560008873ffffffffffffffffffffffffffffffffffffffff1673ffffffffffffffffffffffffffffffffffffffff1681526020019081526020016000208190555060008360010160008873ffffffffffffffffffffffffffffffffffffffff1673ffffffffffffffffffffffffffffffffffffffff16815260200190815260200160002081905550838360020160008873ffffffffffffffffffffffffffffffffffffffff1673ffffffffffffffffffffffffffffffffffffffff168152602001908152602001600020819055508115610b145780836003016000828254610aed9190611aa5565b9250508190555083836004016000828254610b089190611a05565b92505081905550610b38565b80848460040154610b259190611a05565b610b2f9190611aa5565b83600401819055505b7f67b60bc862e9c013a238015361df4bb95a4abfe78309ba4a4d7a04d2fe29e43285856000604051610b6c93929190611ad9565b60405180910390a1505050505050565b6000600560008373ffffffffffffffffffffffffffffffffffffffff1673ffffffffffffffffffffffffffffffffffffffff168152602001908152602001600020549050919050565b60005481565b600060026000838152602001908152602001600020600401549050919050565b6060600260008381526020019081526020016000206000018054610c0e9061188b565b80601f0160208091040260200160405190810160405280929190818152602001828054610c3a9061188b565b8015610c875780601f10610c5c57610100808354040283529160200191610c87565b820191906000526020600020905b815481529060010190602001808311610c6a57829003601f168201915b50505050509050919050565b600080600090505b600980549050811015610d36578273ffffffffffffffffffffffffffffffffffffffff1660098281548110610cd357610cd2611b10565b5b9060005260206000200160009054906101000a900473ffffffffffffffffffffffffffffffffffffffff1673ffffffffffffffffffffffffffffffffffffffff1603610d23576001915050610d3c565b8080610d2e90611b3f565b915050610c9b565b50600090505b919050565b60006002600084815260200190815260200160002060010160008373ffffffffffffffffffffffffffffffffffffffff1673ffffffffffffffffffffffffffffffffffffffff16815260200190815260200160002054905092915050565b600660009054906101000a900473ffffffffffffffffffffffffffffffffffffffff1673ffffffffffffffffffffffffffffffffffffffff163373ffffffffffffffffffffffffffffffffffffffff1614610e2f576040517f08c379a0000000000000000000000000000000000000000000000000000000008152600401610e2690611979565b60405180910390fd5b610e3883610c93565b610e77576040517f08c379a0000000000000000000000000000000000000000000000000000000008152600401610e6e90611bd3565b60405180910390fd5b60006002600084815260200190815260200160002090506000808260010160008773ffffffffffffffffffffffffffffffffffffffff1673ffffffffffffffffffffffffffffffffffffffff1681526020019081526020016000205411610edf576000610ee2565b60015b9050600081610f32578260020160008773ffffffffffffffffffffffffffffffffffffffff1673ffffffffffffffffffffffffffffffffffffffff16815260200190815260200160002054610f75565b8260010160008773ffffffffffffffffffffffffffffffffffffffff1673ffffffffffffffffffffffffffffffffffffffff168152602001908152602001600020545b9050610f8084610674565b610f8982610674565b600560008973ffffffffffffffffffffffffffffffffffffffff1673ffffffffffffffffffffffffffffffffffffffff16815260200190815260200160002054610fd39190611a05565b1015611014576040517f08c379a000000000000000000000000000000000000000000000000000000000815260040161100b90611a85565b60405180910390fd5b61101d84610674565b61102682610674565b600560008973ffffffffffffffffffffffffffffffffffffffff1673ffffffffffffffffffffffffffffffffffffffff168152602001908152602001600020546110709190611a05565b61107a9190611aa5565b600560008873ffffffffffffffffffffffffffffffffffffffff1673ffffffffffffffffffffffffffffffffffffffff16815260200190815260200160002081905550838360010160008873ffffffffffffffffffffffffffffffffffffffff1673ffffffffffffffffffffffffffffffffffffffff1681526020019081526020016000208190555060008360020160008873ffffffffffffffffffffffffffffffffffffffff1673ffffffffffffffffffffffffffffffffffffffff16815260200190815260200160002081905550811561117857808484600301546111619190611a05565b61116b9190611aa5565b83600301819055506111af565b8383600301600082825461118c9190611a05565b92505081905550808360040160008282546111a79190611aa5565b925050819055505b7f67b60bc862e9c013a238015361df4bb95a4abfe78309ba4a4d7a04d2fe29e432858560016040516111e393929190611ad9565b60405180910390a1505050505050565b60006002600084815260200190815260200160002060020160008373ffffffffffffffffffffffffffffffffffffffff1673ffffffffffffffffffffffffffffffffffffffff16815260200190815260200160002054905092915050565b6000806000905060005b6003548110156112b057816002600083815260200190815260200160002060040154111561129d57600260008281526020019081526020016000206004015491505b80806112a890611b3f565b91505061125b565b508091505090565b6000811561131b576002600085815260200190815260200160002060010160008473ffffffffffffffffffffffffffffffffffffffff1673ffffffffffffffffffffffffffffffffffffffff168152602001908152602001600020549050611372565b6002600085815260200190815260200160002060020160008473ffffffffffffffffffffffffffffffffffffffff1673ffffffffffffffffffffffffffffffffffffffff1681526020019081526020016000205490505b9392505050565b600060015460005461138b9190611a05565b42116113cc576040517f08c379a00000000000000000000000000000000000000000000000000000000081526004016113c390611c3f565b60405180910390fd5b60008060005b600354811015611490578160026000838152602001908152602001600020600401546113fc611251565b600260008581526020019081526020016000206003015461141d9190611a05565b6114279190611aa5565b111561147d57809250600260008281526020019081526020016000206004015461144f611251565b60026000848152602001908152602001600020600301546114709190611a05565b61147a9190611aa5565b91505b808061148890611b3f565b9150506113d2565b50819250505090565b60035481565b60056020528060005260406000206000915090505481565b600760009054906101000a900473ffffffffffffffffffffffffffffffffffffffff1681565b6000819050919050565b6114f0816114dd565b82525050565b600060208201905061150b60008301846114e7565b92915050565b600080fd5b61151f816114dd565b811461152a57600080fd5b50565b60008135905061153c81611516565b92915050565b60006020828403121561155857611557611511565b5b60006115668482850161152d565b91505092915050565b600081519050919050565b600082825260208201905092915050565b60005b838110156115a957808201518184015260208101905061158e565b60008484015250505050565b6000601f19601f8301169050919050565b60006115d18261156f565b6115db818561157a565b93506115eb81856020860161158b565b6115f4816115b5565b840191505092915050565b6000606082019050818103600083015261161981866115c6565b905061162860208301856114e7565b61163560408301846114e7565b949350505050565b6000602082019050818103600083015261165781846115c6565b905092915050565b600073ffffffffffffffffffffffffffffffffffffffff82169050919050565b600061168a8261165f565b9050919050565b61169a8161167f565b81146116a557600080fd5b50565b6000813590506116b781611691565b92915050565b6000806000606084860312156116d6576116d5611511565b5b60006116e4868287016116a8565b93505060206116f58682870161152d565b92505060406117068682870161152d565b9150509250925092565b60006020828403121561172657611725611511565b5b6000611734848285016116a8565b91505092915050565b60008115159050919050565b6117528161173d565b82525050565b600060208201905061176d6000830184611749565b92915050565b6000806040838503121561178a57611789611511565b5b60006117988582860161152d565b92505060206117a9858286016116a8565b9150509250929050565b6117bc8161173d565b81146117c757600080fd5b50565b6000813590506117d9816117b3565b92915050565b6000806000606084860312156117f8576117f7611511565b5b60006118068682870161152d565b9350506020611817868287016116a8565b9250506040611828868287016117ca565b9150509250925092565b61183b8161167f565b82525050565b60006020820190506118566000830184611832565b92915050565b7f4e487b7100000000000000000000000000000000000000000000000000000000600052602260045260246000fd5b600060028204905060018216806118a357607f821691505b6020821081036118b6576118b561185c565b5b50919050565b7f4e487b7100000000000000000000000000000000000000000000000000000000600052601160045260246000fd5b60006118f6826114dd565b9150611901836114dd565b925082820261190f816114dd565b91508282048414831517611926576119256118bc565b5b5092915050565b7f4e6f742063616c6c656420766961204661630000000000000000000000000000600082015250565b600061196360128361157a565b915061196e8261192d565b602082019050919050565b6000602082019050818103600083015261199281611956565b9050919050565b7f4e6f7420656c696769626c650000000000000000000000000000000000000000600082015250565b60006119cf600c8361157a565b91506119da82611999565b602082019050919050565b600060208201905081810360008301526119fe816119c2565b9050919050565b6000611a10826114dd565b9150611a1b836114dd565b9250828201905080821115611a3357611a326118bc565b5b92915050565b7f4e6f7420656e6f75676820637265646974000000000000000000000000000000600082015250565b6000611a6f60118361157a565b9150611a7a82611a39565b602082019050919050565b60006020820190508181036000830152611a9e81611a62565b9050919050565b6000611ab0826114dd565b9150611abb836114dd565b9250828203905081811115611ad357611ad26118bc565b5b92915050565b6000606082019050611aee60008301866114e7565b611afb60208301856114e7565b611b086040830184611749565b949350505050565b7f4e487b7100000000000000000000000000000000000000000000000000000000600052603260045260246000fd5b6000611b4a826114dd565b91507fffffffffffffffffffffffffffffffffffffffffffffffffffffffffffffffff8203611b7c57611b7b6118bc565b5b600182019050919050565b7f4e6f7420456c696769626c650000000000000000000000000000000000000000600082015250565b6000611bbd600c8361157a565b9150611bc882611b87565b602082019050919050565b60006020820190508181036000830152611bec81611bb0565b9050919050565b7f506f6c6c2074696d65206e6f7420657870697265642079657421000000000000600082015250565b6000611c29601a8361157a565b9150611c3482611bf3565b602082019050919050565b60006020820190508181036000830152611c5881611c1c565b905091905056fea26469706673582212202a134585075fce1dc0ad87e2182dc11386ac272e0bcd1382ab29ce4c61d9669364736f6c63430008110033a26469706673582212200745feb991401d3394b7fe73c1ffe8ec2c2712c00b3c2b71f6b1c50cd7b9fb8164736f6c63430008110033",
  "devdoc": {
    "kind": "dev",
    "methods": {},
    "version": 1
  },
  "userdoc": {
    "kind": "user",
    "methods": {},
    "version": 1
  },
  "storageLayout": {
    "storage": [
      {
        "astId": 6,
        "contract": "contracts/Factory.sol:Factory",
        "label": "PollArray",
        "offset": 0,
        "slot": "0",
        "type": "t_array(t_contract(Poll)1044)dyn_storage"
      },
      {
        "astId": 9,
        "contract": "contracts/Factory.sol:Factory",
        "label": "isActive",
        "offset": 0,
        "slot": "1",
        "type": "t_array(t_bool)dyn_storage"
      },
      {
        "astId": 12,
        "contract": "contracts/Factory.sol:Factory",
        "label": "results",
        "offset": 0,
        "slot": "2",
        "type": "t_array(t_uint256)dyn_storage"
      },
      {
        "astId": 19,
        "contract": "contracts/Factory.sol:Factory",
        "label": "dummy",
        "offset": 0,
        "slot": "3",
        "type": "t_uint256"
      }
    ],
    "types": {
      "t_array(t_bool)dyn_storage": {
        "base": "t_bool",
        "encoding": "dynamic_array",
        "label": "bool[]",
        "numberOfBytes": "32"
      },
      "t_array(t_contract(Poll)1044)dyn_storage": {
        "base": "t_contract(Poll)1044",
        "encoding": "dynamic_array",
        "label": "contract Poll[]",
        "numberOfBytes": "32"
      },
      "t_array(t_uint256)dyn_storage": {
        "base": "t_uint256",
        "encoding": "dynamic_array",
        "label": "uint256[]",
        "numberOfBytes": "32"
      },
      "t_bool": {
        "encoding": "inplace",
        "label": "bool",
        "numberOfBytes": "1"
      },
      "t_contract(Poll)1044": {
        "encoding": "inplace",
        "label": "contract Poll",
        "numberOfBytes": "20"
      },
      "t_uint256": {
        "encoding": "inplace",
        "label": "uint256",
        "numberOfBytes": "32"
      }
    }
  }
}