{
  "address": "0x5FbDB2315678afecb367f032d93F642f64180aa3",
  "abi": [
    {
      "anonymous": false,
      "inputs": [
        {
          "indexed": false,
          "internalType": "string",
          "name": "_title",
          "type": "string"
        }
      ],
      "name": "PollCreated",
      "type": "event"
    },
    {
      "inputs": [
        {
          "internalType": "uint256",
          "name": "",
          "type": "uint256"
        }
      ],
      "name": "PollArray",
      "outputs": [
        {
          "internalType": "contract Poll",
          "name": "",
          "type": "address"
        }
      ],
      "stateMutability": "view",
      "type": "function"
    },
    {
      "inputs": [
        {
          "internalType": "string",
          "name": "_title",
          "type": "string"
        },
        {
          "internalType": "address[]",
          "name": "_eligibles",
          "type": "address[]"
        },
        {
          "internalType": "string[]",
          "name": "_opTitle",
          "type": "string[]"
        },
        {
          "internalType": "uint256",
          "name": "_validMinutes",
          "type": "uint256"
        }
      ],
      "name": "createPoll",
      "outputs": [],
      "stateMutability": "nonpayable",
      "type": "function"
    },
    {
      "inputs": [
        {
          "internalType": "uint256",
          "name": "_pollIndex",
          "type": "uint256"
        },
        {
          "internalType": "address",
          "name": "voter",
          "type": "address"
        }
      ],
      "name": "getCredit",
      "outputs": [
        {
          "internalType": "uint256",
          "name": "",
          "type": "uint256"
        }
      ],
      "stateMutability": "view",
      "type": "function"
    },
    {
      "inputs": [
        {
          "internalType": "uint256",
          "name": "_pollIndex",
          "type": "uint256"
        }
      ],
      "name": "getIsActive",
      "outputs": [
        {
          "internalType": "bool",
          "name": "",
          "type": "bool"
        }
      ],
      "stateMutability": "view",
      "type": "function"
    },
    {
      "inputs": [],
      "name": "getNumEvents",
      "outputs": [
        {
          "internalType": "uint256",
          "name": "",
          "type": "uint256"
        }
      ],
      "stateMutability": "view",
      "type": "function"
    },
    {
      "inputs": [
        {
          "internalType": "uint256",
          "name": "_pollIndex",
          "type": "uint256"
        }
      ],
      "name": "getNumOptions",
      "outputs": [
        {
          "internalType": "uint256",
          "name": "",
          "type": "uint256"
        }
      ],
      "stateMutability": "view",
      "type": "function"
    },
    {
      "inputs": [
        {
          "internalType": "uint256",
          "name": "_pollIndex",
          "type": "uint256"
        },
        {
          "internalType": "uint256",
          "name": "optionId",
          "type": "uint256"
        }
      ],
      "name": "getOpNegativeWeight",
      "outputs": [
        {
          "internalType": "uint256",
          "name": "",
          "type": "uint256"
        }
      ],
      "stateMutability": "view",
      "type": "function"
    },
    {
      "inputs": [
        {
          "internalType": "uint256",
          "name": "_pollIndex",
          "type": "uint256"
        },
        {
          "internalType": "uint256",
          "name": "optionId",
          "type": "uint256"
        }
      ],
      "name": "getOpPositiveWeight",
      "outputs": [
        {
          "internalType": "uint256",
          "name": "",
          "type": "uint256"
        }
      ],
      "stateMutability": "view",
      "type": "function"
    },
    {
      "inputs": [
        {
          "internalType": "uint256",
          "name": "_pollIndex",
          "type": "uint256"
        },
        {
          "internalType": "uint256",
          "name": "optionId",
          "type": "uint256"
        }
      ],
      "name": "getOpTitle",
      "outputs": [
        {
          "internalType": "string",
          "name": "",
          "type": "string"
        }
      ],
      "stateMutability": "view",
      "type": "function"
    },
    {
      "inputs": [
        {
          "internalType": "uint256",
          "name": "_pollIndex",
          "type": "uint256"
        }
      ],
      "name": "getTitle",
      "outputs": [
        {
          "internalType": "string",
          "name": "",
          "type": "string"
        }
      ],
      "stateMutability": "view",
      "type": "function"
    },
    {
      "inputs": [
        {
          "internalType": "uint256",
          "name": "_pollIndex",
          "type": "uint256"
        },
        {
          "internalType": "uint256",
          "name": "optionId",
          "type": "uint256"
        }
      ],
      "name": "getVoterOpNegativeWeight",
      "outputs": [
        {
          "internalType": "uint256",
          "name": "",
          "type": "uint256"
        }
      ],
      "stateMutability": "view",
      "type": "function"
    },
    {
      "inputs": [
        {
          "internalType": "uint256",
          "name": "_pollIndex",
          "type": "uint256"
        },
        {
          "internalType": "uint256",
          "name": "optionId",
          "type": "uint256"
        }
      ],
      "name": "getVoterOpPositiveWeight",
      "outputs": [
        {
          "internalType": "uint256",
          "name": "",
          "type": "uint256"
        }
      ],
      "stateMutability": "view",
      "type": "function"
    },
    {
      "inputs": [],
      "name": "getcurrentTime",
      "outputs": [
        {
          "internalType": "uint256",
          "name": "",
          "type": "uint256"
        }
      ],
      "stateMutability": "view",
      "type": "function"
    },
    {
      "inputs": [
        {
          "internalType": "uint256",
          "name": "_pollIndex",
          "type": "uint256"
        }
      ],
      "name": "getdeployTime",
      "outputs": [
        {
          "internalType": "uint256",
          "name": "",
          "type": "uint256"
        }
      ],
      "stateMutability": "view",
      "type": "function"
    },
    {
      "inputs": [
        {
          "internalType": "uint256",
          "name": "_pollIndex",
          "type": "uint256"
        }
      ],
      "name": "getresult",
      "outputs": [
        {
          "internalType": "uint256",
          "name": "",
          "type": "uint256"
        }
      ],
      "stateMutability": "view",
      "type": "function"
    },
    {
      "inputs": [
        {
          "internalType": "uint256",
          "name": "_pollIndex",
          "type": "uint256"
        }
      ],
      "name": "getvalidSeconds",
      "outputs": [
        {
          "internalType": "uint256",
          "name": "",
          "type": "uint256"
        }
      ],
      "stateMutability": "view",
      "type": "function"
    },
    {
      "inputs": [
        {
          "internalType": "uint256",
          "name": "",
          "type": "uint256"
        }
      ],
      "name": "isActive",
      "outputs": [
        {
          "internalType": "bool",
          "name": "",
          "type": "bool"
        }
      ],
      "stateMutability": "view",
      "type": "function"
    },
    {
      "inputs": [
        {
          "internalType": "uint256",
          "name": "_pollIndex",
          "type": "uint256"
        },
        {
          "internalType": "uint256",
          "name": "_optionIndex",
          "type": "uint256"
        },
        {
          "internalType": "uint256",
          "name": "_num",
          "type": "uint256"
        }
      ],
      "name": "negativeVote",
      "outputs": [],
      "stateMutability": "nonpayable",
      "type": "function"
    },
    {
      "inputs": [
        {
          "internalType": "uint256",
          "name": "_pollIndex",
          "type": "uint256"
        },
        {
          "internalType": "uint256",
          "name": "_optionIndex",
          "type": "uint256"
        },
        {
          "internalType": "uint256",
          "name": "_num",
          "type": "uint256"
        }
      ],
      "name": "positiveVote",
      "outputs": [],
      "stateMutability": "nonpayable",
      "type": "function"
    },
    {
      "inputs": [
        {
          "internalType": "uint256",
          "name": "_pollIndex",
          "type": "uint256"
        }
      ],
      "name": "publishResult",
      "outputs": [],
      "stateMutability": "nonpayable",
      "type": "function"
    },
    {
      "inputs": [
        {
          "internalType": "uint256",
          "name": "",
          "type": "uint256"
        }
      ],
      "name": "results",
      "outputs": [
        {
          "internalType": "uint256",
          "name": "",
          "type": "uint256"
        }
      ],
      "stateMutability": "view",
      "type": "function"
    }
  ],
  "transactionHash": "0x88d57e30bc0582deda8ca6ae8606a1a235e409e5fba46a952258e7ab2ca40638",
  "args": [],
  "numDeployments": 1,
  "solcInputHash": "21a137444dd4083bdc33ab3c5985191d",
  "bytecode": "0x6080604052600060035534801561001557600080fd5b506149e4806100256000396000f3fe60806040523480156200001157600080fd5b5060043610620001545760003560e01c80637229eec911620000c9578063d1b878e91162000087578063d1b878e91462000419578063d5a0580e146200044f578063deb84df71462000485578063df8704aa14620004a5578063edeb797c14620004db578063efbcb97214620005115762000154565b80637229eec9146200033557806382afd23b146200036b5780638f6f069814620003a1578063929a79b114620003c357806392e821a514620003f95762000154565b80633a467eea11620001175780633a467eea14620002675780633b0364d4146200028757806352e35d4c14620002bd578063625ac7e514620002f35780636c9c7c6014620003155762000154565b8063059a7f6214620001595780631a3c8b6f146200018f5780631b0c27da14620001c55780631c8a7ffa14620001fb5780631e9df9401462000231575b600080fd5b620001776004803603810190620001719190620013f9565b62000547565b604051620001869190620014da565b60405180910390f35b620001ad6004803603810190620001a7919062001563565b62000616565b604051620001bc9190620015bb565b60405180910390f35b620001e36004803603810190620001dd9190620015d8565b620006df565b604051620001f29190620015bb565b60405180910390f35b620002196004803603810190620002139190620013f9565b62000704565b604051620002289190620015bb565b60405180910390f35b6200024f6004803603810190620002499190620013f9565b620007cf565b6040516200025e9190620015bb565b60405180910390f35b6200028560048036038101906200027f91906200160a565b6200089a565b005b620002a560048036038101906200029f9190620015d8565b620009d3565b604051620002b4919062001683565b60405180910390f35b620002db6004803603810190620002d59190620015d8565b62000a13565b604051620002ea9190620015bb565b60405180910390f35b620002fd62000ace565b6040516200030c9190620015bb565b60405180910390f35b6200033360048036038101906200032d91906200160a565b62000ada565b005b6200035360048036038101906200034d9190620015d8565b62000c13565b6040516200036291906200170b565b60405180910390f35b620003896004803603810190620003839190620015d8565b62000c53565b60405162000398919062001683565b60405180910390f35b620003ab62000c88565b604051620003ba9190620015bb565b60405180910390f35b620003e16004803603810190620003db9190620015d8565b62000c90565b604051620003f09190620014da565b60405180910390f35b620004176004803603810190620004119190620015d8565b62000d51565b005b620004376004803603810190620004319190620015d8565b62000e8a565b604051620004469190620015bb565b60405180910390f35b6200046d6004803603810190620004679190620015d8565b62000f45565b6040516200047c9190620015bb565b60405180910390f35b620004a360048036038101906200049d919062001a4b565b62001000565b005b620004c36004803603810190620004bd9190620013f9565b6200114f565b604051620004d29190620015bb565b60405180910390f35b620004f96004803603810190620004f39190620015d8565b62001218565b604051620005089190620015bb565b60405180910390f35b6200052f6004803603810190620005299190620013f9565b620012d3565b6040516200053e9190620015bb565b60405180910390f35b60606000838154811062000560576200055f62001b1a565b5b9060005260206000200160009054906101000a900473ffffffffffffffffffffffffffffffffffffffff1673ffffffffffffffffffffffffffffffffffffffff16639df10dff836040518263ffffffff1660e01b8152600401620005c59190620015bb565b600060405180830381865afa158015620005e3573d6000803e3d6000fd5b505050506040513d6000823e3d601f19601f820116820180604052508101906200060e919062001bc7565b905092915050565b60008083815481106200062e576200062d62001b1a565b5b9060005260206000200160009054906101000a900473ffffffffffffffffffffffffffffffffffffffff1673ffffffffffffffffffffffffffffffffffffffff166357344e6f836040518263ffffffff1660e01b815260040162000693919062001c29565b602060405180830381865afa158015620006b1573d6000803e3d6000fd5b505050506040513d601f19601f82011682018060405250810190620006d7919062001c5d565b905092915050565b60028181548110620006f057600080fd5b906000526020600020016000915090505481565b60008083815481106200071c576200071b62001b1a565b5b9060005260206000200160009054906101000a900473ffffffffffffffffffffffffffffffffffffffff1673ffffffffffffffffffffffffffffffffffffffff1663b6c9ebbb83336040518363ffffffff1660e01b81526004016200078392919062001c8f565b602060405180830381865afa158015620007a1573d6000803e3d6000fd5b505050506040513d601f19601f82011682018060405250810190620007c7919062001c5d565b905092915050565b6000808381548110620007e757620007e662001b1a565b5b9060005260206000200160009054906101000a900473ffffffffffffffffffffffffffffffffffffffff1673ffffffffffffffffffffffffffffffffffffffff16639fd18e8883336040518363ffffffff1660e01b81526004016200084e92919062001c8f565b602060405180830381865afa1580156200086c573d6000803e3d6000fd5b505050506040513d601f19601f8201168201806040525081019062000892919062001c5d565b905092915050565b6001151560018481548110620008b557620008b462001b1a565b5b90600052602060002090602091828204019190069054906101000a900460ff161515146200091a576040517f08c379a0000000000000000000000000000000000000000000000000000000008152600401620009119062001d0c565b60405180910390fd5b6000838154811062000931576200093062001b1a565b5b9060005260206000200160009054906101000a900473ffffffffffffffffffffffffffffffffffffffff1673ffffffffffffffffffffffffffffffffffffffff16634e28b8093384846040518463ffffffff1660e01b81526004016200099a9392919062001d2e565b600060405180830381600087803b158015620009b557600080fd5b505af1158015620009ca573d6000803e3d6000fd5b50505050505050565b600060018281548110620009ec57620009eb62001b1a565b5b90600052602060002090602091828204019190069054906101000a900460ff169050919050565b600080828154811062000a2b5762000a2a62001b1a565b5b9060005260206000200160009054906101000a900473ffffffffffffffffffffffffffffffffffffffff1673ffffffffffffffffffffffffffffffffffffffff1663018432b66040518163ffffffff1660e01b8152600401602060405180830381865afa15801562000aa1573d6000803e3d6000fd5b505050506040513d601f19601f8201168201806040525081019062000ac7919062001c5d565b9050919050565b60008080549050905090565b600115156001848154811062000af55762000af462001b1a565b5b90600052602060002090602091828204019190069054906101000a900460ff1615151462000b5a576040517f08c379a000000000000000000000000000000000000000000000000000000000815260040162000b519062001d0c565b60405180910390fd5b6000838154811062000b715762000b7062001b1a565b5b9060005260206000200160009054906101000a900473ffffffffffffffffffffffffffffffffffffffff1673ffffffffffffffffffffffffffffffffffffffff1663a44290de3384846040518463ffffffff1660e01b815260040162000bda9392919062001d2e565b600060405180830381600087803b15801562000bf557600080fd5b505af115801562000c0a573d6000803e3d6000fd5b50505050505050565b6000818154811062000c2457600080fd5b906000526020600020016000915054906101000a900473ffffffffffffffffffffffffffffffffffffffff1681565b6001818154811062000c6457600080fd5b9060005260206000209060209182820401919006915054906101000a900460ff1681565b600042905090565b60606000828154811062000ca95762000ca862001b1a565b5b9060005260206000200160009054906101000a900473ffffffffffffffffffffffffffffffffffffffff1673ffffffffffffffffffffffffffffffffffffffff16634a79d50c6040518163ffffffff1660e01b8152600401600060405180830381865afa15801562000d1f573d6000803e3d6000fd5b505050506040513d6000823e3d601f19601f8201168201806040525081019062000d4a919062001bc7565b9050919050565b60016003600082825462000d66919062001d9a565b925050819055506000818154811062000d845762000d8362001b1a565b5b9060005260206000200160009054906101000a900473ffffffffffffffffffffffffffffffffffffffff1673ffffffffffffffffffffffffffffffffffffffff1663de2927896040518163ffffffff1660e01b8152600401602060405180830381865afa15801562000dfa573d6000803e3d6000fd5b505050506040513d601f19601f8201168201806040525081019062000e20919062001c5d565b6002828154811062000e375762000e3662001b1a565b5b906000526020600020018190555060006001828154811062000e5e5762000e5d62001b1a565b5b90600052602060002090602091828204019190066101000a81548160ff02191690831515021790555050565b600080828154811062000ea25762000ea162001b1a565b5b9060005260206000200160009054906101000a900473ffffffffffffffffffffffffffffffffffffffff1673ffffffffffffffffffffffffffffffffffffffff1663de2927896040518163ffffffff1660e01b8152600401602060405180830381865afa15801562000f18573d6000803e3d6000fd5b505050506040513d601f19601f8201168201806040525081019062000f3e919062001c5d565b9050919050565b600080828154811062000f5d5762000f5c62001b1a565b5b9060005260206000200160009054906101000a900473ffffffffffffffffffffffffffffffffffffffff1673ffffffffffffffffffffffffffffffffffffffff16637a40624b6040518163ffffffff1660e01b8152600401602060405180830381865afa15801562000fd3573d6000803e3d6000fd5b505050506040513d601f19601f8201168201806040525081019062000ff9919062001c5d565b9050919050565b6000338585858560405162001015906200139c565b6200102595949392919062001fc5565b604051809103906000f08015801562001042573d6000803e3d6000fd5b509080600181540180825580915050600190039060005260206000200160009091909190916101000a81548173ffffffffffffffffffffffffffffffffffffffff021916908373ffffffffffffffffffffffffffffffffffffffff1602179055507f9bf8745d989aef219097b36114b7e27d7f74b56a6e55ab898a6c4e4a0489f75884604051620010d49190620014da565b60405180910390a1600180806001815401808255809150506001900390600052602060002090602091828204019190069091909190916101000a81548160ff02191690831515021790555060026000908060018154018082558091505060019003906000526020600020016000909190919091505550505050565b600080838154811062001167576200116662001b1a565b5b9060005260206000200160009054906101000a900473ffffffffffffffffffffffffffffffffffffffff1673ffffffffffffffffffffffffffffffffffffffff166340069e7b836040518263ffffffff1660e01b8152600401620011cc9190620015bb565b602060405180830381865afa158015620011ea573d6000803e3d6000fd5b505050506040513d601f19601f8201168201806040525081019062001210919062001c5d565b905092915050565b600080828154811062001230576200122f62001b1a565b5b9060005260206000200160009054906101000a900473ffffffffffffffffffffffffffffffffffffffff1673ffffffffffffffffffffffffffffffffffffffff1663e32fe90b6040518163ffffffff1660e01b8152600401602060405180830381865afa158015620012a6573d6000803e3d6000fd5b505050506040513d601f19601f82011682018060405250810190620012cc919062001c5d565b9050919050565b6000808381548110620012eb57620012ea62001b1a565b5b9060005260206000200160009054906101000a900473ffffffffffffffffffffffffffffffffffffffff1673ffffffffffffffffffffffffffffffffffffffff16637f2af6d5836040518263ffffffff1660e01b8152600401620013509190620015bb565b602060405180830381865afa1580156200136e573d6000803e3d6000fd5b505050506040513d601f19601f8201168201806040525081019062001394919062001c5d565b905092915050565b612977806200203883390190565b6000604051905090565b600080fd5b600080fd5b6000819050919050565b620013d381620013be565b8114620013df57600080fd5b50565b600081359050620013f381620013c8565b92915050565b60008060408385031215620014135762001412620013b4565b5b60006200142385828601620013e2565b92505060206200143685828601620013e2565b9150509250929050565b600081519050919050565b600082825260208201905092915050565b60005b838110156200147c5780820151818401526020810190506200145f565b60008484015250505050565b6000601f19601f8301169050919050565b6000620014a68262001440565b620014b281856200144b565b9350620014c48185602086016200145c565b620014cf8162001488565b840191505092915050565b60006020820190508181036000830152620014f6818462001499565b905092915050565b600073ffffffffffffffffffffffffffffffffffffffff82169050919050565b60006200152b82620014fe565b9050919050565b6200153d816200151e565b81146200154957600080fd5b50565b6000813590506200155d8162001532565b92915050565b600080604083850312156200157d576200157c620013b4565b5b60006200158d85828601620013e2565b9250506020620015a0858286016200154c565b9150509250929050565b620015b581620013be565b82525050565b6000602082019050620015d26000830184620015aa565b92915050565b600060208284031215620015f157620015f0620013b4565b5b60006200160184828501620013e2565b91505092915050565b600080600060608486031215620016265762001625620013b4565b5b60006200163686828701620013e2565b93505060206200164986828701620013e2565b92505060406200165c86828701620013e2565b9150509250925092565b60008115159050919050565b6200167d8162001666565b82525050565b60006020820190506200169a600083018462001672565b92915050565b6000819050919050565b6000620016cb620016c5620016bf84620014fe565b620016a0565b620014fe565b9050919050565b6000620016df82620016aa565b9050919050565b6000620016f382620016d2565b9050919050565b6200170581620016e6565b82525050565b6000602082019050620017226000830184620016fa565b92915050565b600080fd5b600080fd5b7f4e487b7100000000000000000000000000000000000000000000000000000000600052604160045260246000fd5b6200176c8262001488565b810181811067ffffffffffffffff821117156200178e576200178d62001732565b5b80604052505050565b6000620017a3620013aa565b9050620017b1828262001761565b919050565b600067ffffffffffffffff821115620017d457620017d362001732565b5b620017df8262001488565b9050602081019050919050565b82818337600083830152505050565b6000620018126200180c84620017b6565b62001797565b9050828152602081018484840111156200183157620018306200172d565b5b6200183e848285620017ec565b509392505050565b600082601f8301126200185e576200185d62001728565b5b813562001870848260208601620017fb565b91505092915050565b600067ffffffffffffffff82111562001897576200189662001732565b5b602082029050602081019050919050565b600080fd5b6000620018c4620018be8462001879565b62001797565b90508083825260208201905060208402830185811115620018ea57620018e9620018a8565b5b835b818110156200191757806200190288826200154c565b845260208401935050602081019050620018ec565b5050509392505050565b600082601f83011262001939576200193862001728565b5b81356200194b848260208601620018ad565b91505092915050565b600067ffffffffffffffff82111562001972576200197162001732565b5b602082029050602081019050919050565b60006200199a620019948462001954565b62001797565b90508083825260208201905060208402830185811115620019c057620019bf620018a8565b5b835b8181101562001a0e57803567ffffffffffffffff811115620019e957620019e862001728565b5b808601620019f8898262001846565b85526020850194505050602081019050620019c2565b5050509392505050565b600082601f83011262001a305762001a2f62001728565b5b813562001a4284826020860162001983565b91505092915050565b6000806000806080858703121562001a685762001a67620013b4565b5b600085013567ffffffffffffffff81111562001a895762001a88620013b9565b5b62001a978782880162001846565b945050602085013567ffffffffffffffff81111562001abb5762001aba620013b9565b5b62001ac98782880162001921565b935050604085013567ffffffffffffffff81111562001aed5762001aec620013b9565b5b62001afb8782880162001a18565b925050606062001b0e87828801620013e2565b91505092959194509250565b7f4e487b7100000000000000000000000000000000000000000000000000000000600052603260045260246000fd5b600062001b6062001b5a84620017b6565b62001797565b90508281526020810184848401111562001b7f5762001b7e6200172d565b5b62001b8c8482856200145c565b509392505050565b600082601f83011262001bac5762001bab62001728565b5b815162001bbe84826020860162001b49565b91505092915050565b60006020828403121562001be05762001bdf620013b4565b5b600082015167ffffffffffffffff81111562001c015762001c00620013b9565b5b62001c0f8482850162001b94565b91505092915050565b62001c23816200151e565b82525050565b600060208201905062001c40600083018462001c18565b92915050565b60008151905062001c5781620013c8565b92915050565b60006020828403121562001c765762001c75620013b4565b5b600062001c868482850162001c46565b91505092915050565b600060408201905062001ca66000830185620015aa565b62001cb5602083018462001c18565b9392505050565b7f54696d65277320757020666f72207468697320706f6c6c20616c726561647921600082015250565b600062001cf46020836200144b565b915062001d018262001cbc565b602082019050919050565b6000602082019050818103600083015262001d278162001ce5565b9050919050565b600060608201905062001d45600083018662001c18565b62001d546020830185620015aa565b62001d636040830184620015aa565b949350505050565b7f4e487b7100000000000000000000000000000000000000000000000000000000600052601160045260246000fd5b600062001da782620013be565b915062001db483620013be565b925082820190508082111562001dcf5762001dce62001d6b565b5b92915050565b600081519050919050565b600082825260208201905092915050565b6000819050602082019050919050565b62001e0c816200151e565b82525050565b600062001e20838362001e01565b60208301905092915050565b6000602082019050919050565b600062001e468262001dd5565b62001e52818562001de0565b935062001e5f8362001df1565b8060005b8381101562001e9657815162001e7a888262001e12565b975062001e878362001e2c565b92505060018101905062001e63565b5085935050505092915050565b600081519050919050565b600082825260208201905092915050565b6000819050602082019050919050565b600082825260208201905092915050565b600062001eed8262001440565b62001ef9818562001ecf565b935062001f0b8185602086016200145c565b62001f168162001488565b840191505092915050565b600062001f2f838362001ee0565b905092915050565b6000602082019050919050565b600062001f518262001ea3565b62001f5d818562001eae565b93508360208202850162001f718562001ebf565b8060005b8581101562001fb3578484038952815162001f91858262001f21565b945062001f9e8362001f37565b925060208a0199505060018101905062001f75565b50829750879550505050505092915050565b600060a08201905062001fdc600083018862001c18565b818103602083015262001ff0818762001499565b9050818103604083015262002006818662001e39565b905081810360608301526200201c818562001f44565b90506200202d6080830184620015aa565b969550505050505056fe608060405260646004553480156200001657600080fd5b50604051620029773803806200297783398181016040528101906200003c9190620006bf565b33600660006101000a81548173ffffffffffffffffffffffffffffffffffffffff021916908373ffffffffffffffffffffffffffffffffffffffff16021790555084600760006101000a81548173ffffffffffffffffffffffffffffffffffffffff021916908373ffffffffffffffffffffffffffffffffffffffff1602179055508360089081620000cf9190620009e5565b508260099080519060200190620000e89291906200020c565b50815160038190555042600081905550603c8162000107919062000afb565b60018190555060005b835181101562000193576004546005600086848151811062000137576200013662000b46565b5b602002602001015173ffffffffffffffffffffffffffffffffffffffff1673ffffffffffffffffffffffffffffffffffffffff1681526020019081526020016000208190555080806200018a9062000b75565b91505062000110565b5060005b825181101562000200576000600260008381526020019081526020016000209050838281518110620001ce57620001cd62000b46565b5b6020026020010151816000019081620001e89190620009e5565b50508080620001f79062000b75565b91505062000197565b50505050505062000bc2565b82805482825590600052602060002090810192821562000288579160200282015b82811115620002875782518260006101000a81548173ffffffffffffffffffffffffffffffffffffffff021916908373ffffffffffffffffffffffffffffffffffffffff160217905550916020019190600101906200022d565b5b5090506200029791906200029b565b5090565b5b80821115620002b65760008160009055506001016200029c565b5090565b6000604051905090565b600080fd5b600080fd5b600073ffffffffffffffffffffffffffffffffffffffff82169050919050565b6000620002fb82620002ce565b9050919050565b6200030d81620002ee565b81146200031957600080fd5b50565b6000815190506200032d8162000302565b92915050565b600080fd5b600080fd5b6000601f19601f8301169050919050565b7f4e487b7100000000000000000000000000000000000000000000000000000000600052604160045260246000fd5b62000388826200033d565b810181811067ffffffffffffffff82111715620003aa57620003a96200034e565b5b80604052505050565b6000620003bf620002ba565b9050620003cd82826200037d565b919050565b600067ffffffffffffffff821115620003f057620003ef6200034e565b5b620003fb826200033d565b9050602081019050919050565b60005b83811015620004285780820151818401526020810190506200040b565b60008484015250505050565b60006200044b6200044584620003d2565b620003b3565b9050828152602081018484840111156200046a576200046962000338565b5b6200047784828562000408565b509392505050565b600082601f83011262000497576200049662000333565b5b8151620004a984826020860162000434565b91505092915050565b600067ffffffffffffffff821115620004d057620004cf6200034e565b5b602082029050602081019050919050565b600080fd5b6000620004fd620004f784620004b2565b620003b3565b90508083825260208201905060208402830185811115620005235762000522620004e1565b5b835b818110156200055057806200053b88826200031c565b84526020840193505060208101905062000525565b5050509392505050565b600082601f83011262000572576200057162000333565b5b815162000584848260208601620004e6565b91505092915050565b600067ffffffffffffffff821115620005ab57620005aa6200034e565b5b602082029050602081019050919050565b6000620005d3620005cd846200058d565b620003b3565b90508083825260208201905060208402830185811115620005f957620005f8620004e1565b5b835b818110156200064757805167ffffffffffffffff81111562000622576200062162000333565b5b8086016200063189826200047f565b85526020850194505050602081019050620005fb565b5050509392505050565b600082601f83011262000669576200066862000333565b5b81516200067b848260208601620005bc565b91505092915050565b6000819050919050565b620006998162000684565b8114620006a557600080fd5b50565b600081519050620006b9816200068e565b92915050565b600080600080600060a08688031215620006de57620006dd620002c4565b5b6000620006ee888289016200031c565b955050602086015167ffffffffffffffff811115620007125762000711620002c9565b5b62000720888289016200047f565b945050604086015167ffffffffffffffff811115620007445762000743620002c9565b5b62000752888289016200055a565b935050606086015167ffffffffffffffff811115620007765762000775620002c9565b5b620007848882890162000651565b92505060806200079788828901620006a8565b9150509295509295909350565b600081519050919050565b7f4e487b7100000000000000000000000000000000000000000000000000000000600052602260045260246000fd5b60006002820490506001821680620007f757607f821691505b6020821081036200080d576200080c620007af565b5b50919050565b60008190508160005260206000209050919050565b60006020601f8301049050919050565b600082821b905092915050565b600060088302620008777fffffffffffffffffffffffffffffffffffffffffffffffffffffffffffffffff8262000838565b62000883868362000838565b95508019841693508086168417925050509392505050565b6000819050919050565b6000620008c6620008c0620008ba8462000684565b6200089b565b62000684565b9050919050565b6000819050919050565b620008e283620008a5565b620008fa620008f182620008cd565b84845462000845565b825550505050565b600090565b6200091162000902565b6200091e818484620008d7565b505050565b5b8181101562000946576200093a60008262000907565b60018101905062000924565b5050565b601f82111562000995576200095f8162000813565b6200096a8462000828565b810160208510156200097a578190505b62000992620009898562000828565b83018262000923565b50505b505050565b600082821c905092915050565b6000620009ba600019846008026200099a565b1980831691505092915050565b6000620009d58383620009a7565b9150826002028217905092915050565b620009f082620007a4565b67ffffffffffffffff81111562000a0c5762000a0b6200034e565b5b62000a188254620007de565b62000a258282856200094a565b600060209050601f83116001811462000a5d576000841562000a48578287015190505b62000a548582620009c7565b86555062000ac4565b601f19841662000a6d8662000813565b60005b8281101562000a975784890151825560018201915060208501945060208101905062000a70565b8683101562000ab7578489015162000ab3601f891682620009a7565b8355505b6001600288020188555050505b505050505050565b7f4e487b7100000000000000000000000000000000000000000000000000000000600052601160045260246000fd5b600062000b088262000684565b915062000b158362000684565b925082820262000b258162000684565b9150828204841483151762000b3f5762000b3e62000acc565b5b5092915050565b7f4e487b7100000000000000000000000000000000000000000000000000000000600052603260045260246000fd5b600062000b828262000684565b91507fffffffffffffffffffffffffffffffffffffffffffffffffffffffffffffffff820362000bb75762000bb662000acc565b5b600182019050919050565b611da58062000bd26000396000f3fe6080604052600436106101355760003560e01c80639df10dff116100ab578063c2b939fe1161006f578063c2b939fe14610470578063d7921a5b1461049b578063de292789146104d8578063e32fe90b14610503578063f5f52f901461052e578063f851a4401461056b57610135565b80639df10dff146103605780639e3368941461039d5780639fd18e88146103da578063a44290de14610417578063b6c9ebbb1461043357610135565b80634a79d50c116100fd5780634a79d50c146102495780634c1b8ffd146102745780634e28b8091461029f57806357344e6f146102bb5780637a40624b146102f85780637f2af6d51461032357610135565b8063018432b61461013a57806327d4dbe91461016557806340069e7b14610190578063409e2205146101cd578063473a6d521461020c575b600080fd5b34801561014657600080fd5b5061014f610596565b60405161015c919061159a565b60405180910390f35b34801561017157600080fd5b5061017a61059c565b604051610187919061159a565b60405180910390f35b34801561019c57600080fd5b506101b760048036038101906101b291906115e6565b6105a2565b6040516101c4919061159a565b60405180910390f35b3480156101d957600080fd5b506101f460048036038101906101ef91906115e6565b6105c2565b604051610203939291906116a3565b60405180910390f35b34801561021857600080fd5b50610233600480360381019061022e91906115e6565b610674565b604051610240919061159a565b60405180910390f35b34801561025557600080fd5b5061025e610695565b60405161026b91906116e1565b60405180910390f35b34801561028057600080fd5b50610289610723565b604051610296919061159a565b60405180910390f35b6102b960048036038101906102b49190611761565b610728565b005b3480156102c757600080fd5b506102e260048036038101906102dd91906117b4565b610bce565b6040516102ef919061159a565b60405180910390f35b34801561030457600080fd5b5061030d610c17565b60405161031a919061159a565b60405180910390f35b34801561032f57600080fd5b5061034a600480360381019061034591906115e6565b610c1d565b604051610357919061159a565b60405180910390f35b34801561036c57600080fd5b50610387600480360381019061038291906115e6565b610c3d565b60405161039491906116e1565b60405180910390f35b3480156103a957600080fd5b506103c460048036038101906103bf91906117b4565b610ce5565b6040516103d191906117fc565b60405180910390f35b3480156103e657600080fd5b5061040160048036038101906103fc9190611817565b610d93565b60405161040e919061159a565b60405180910390f35b610431600480360381019061042c9190611761565b610df1565b005b34801561043f57600080fd5b5061045a60048036038101906104559190611817565b611297565b604051610467919061159a565b60405180910390f35b34801561047c57600080fd5b506104856112f5565b604051610492919061159a565b60405180910390f35b3480156104a757600080fd5b506104c260048036038101906104bd9190611883565b61135c565b6040516104cf919061159a565b60405180910390f35b3480156104e457600080fd5b506104ed61141d565b6040516104fa919061159a565b60405180910390f35b34801561050f57600080fd5b5061051861153d565b604051610525919061159a565b60405180910390f35b34801561053a57600080fd5b50610555600480360381019061055091906117b4565b611543565b604051610562919061159a565b60405180910390f35b34801561057757600080fd5b5061058061155b565b60405161058d91906118e5565b60405180910390f35b60015481565b60045481565b600060026000838152602001908152602001600020600301549050919050565b60026020528060005260406000206000915090508060000180546105e59061192f565b80601f01602080910402602001604051908101604052809291908181526020018280546106119061192f565b801561065e5780601f106106335761010080835404028352916020019161065e565b820191906000526020600020905b81548152906001019060200180831161064157829003601f168201915b5050505050908060030154908060040154905083565b600060018283610684919061198f565b61068e919061198f565b9050919050565b600880546106a29061192f565b80601f01602080910402602001604051908101604052809291908181526020018280546106ce9061192f565b801561071b5780601f106106f05761010080835404028352916020019161071b565b820191906000526020600020905b8154815290600101906020018083116106fe57829003601f168201915b505050505081565b600181565b600660009054906101000a900473ffffffffffffffffffffffffffffffffffffffff1673ffffffffffffffffffffffffffffffffffffffff163373ffffffffffffffffffffffffffffffffffffffff16146107b8576040517f08c379a00000000000000000000000000000000000000000000000000000000081526004016107af90611a1d565b60405180910390fd5b6001546000546107c89190611a3d565b42111561080a576040517f08c379a000000000000000000000000000000000000000000000000000000000815260040161080190611abd565b60405180910390fd5b61081383610ce5565b610852576040517f08c379a000000000000000000000000000000000000000000000000000000000815260040161084990611b29565b60405180910390fd5b60006002600084815260200190815260200160002090506000808260010160008773ffffffffffffffffffffffffffffffffffffffff1673ffffffffffffffffffffffffffffffffffffffff16815260200190815260200160002054116108ba5760006108bd565b60015b905060008161090d578260020160008773ffffffffffffffffffffffffffffffffffffffff1673ffffffffffffffffffffffffffffffffffffffff16815260200190815260200160002054610950565b8260010160008773ffffffffffffffffffffffffffffffffffffffff1673ffffffffffffffffffffffffffffffffffffffff168152602001908152602001600020545b905061095b84610674565b61096482610674565b600560008973ffffffffffffffffffffffffffffffffffffffff1673ffffffffffffffffffffffffffffffffffffffff168152602001908152602001600020546109ae9190611a3d565b10156109ef576040517f08c379a00000000000000000000000000000000000000000000000000000000081526004016109e690611b95565b60405180910390fd5b6109f884610674565b610a0182610674565b600560008973ffffffffffffffffffffffffffffffffffffffff1673ffffffffffffffffffffffffffffffffffffffff16815260200190815260200160002054610a4b9190611a3d565b610a559190611bb5565b600560008873ffffffffffffffffffffffffffffffffffffffff1673ffffffffffffffffffffffffffffffffffffffff1681526020019081526020016000208190555060008360010160008873ffffffffffffffffffffffffffffffffffffffff1673ffffffffffffffffffffffffffffffffffffffff16815260200190815260200160002081905550838360020160008873ffffffffffffffffffffffffffffffffffffffff1673ffffffffffffffffffffffffffffffffffffffff168152602001908152602001600020819055508115610b665780836003016000828254610b3f9190611bb5565b9250508190555083836004016000828254610b5a9190611a3d565b92505081905550610b8a565b80848460040154610b779190611a3d565b610b819190611bb5565b83600401819055505b7f67b60bc862e9c013a238015361df4bb95a4abfe78309ba4a4d7a04d2fe29e43285856000604051610bbe93929190611be9565b60405180910390a1505050505050565b6000600560008373ffffffffffffffffffffffffffffffffffffffff1673ffffffffffffffffffffffffffffffffffffffff168152602001908152602001600020549050919050565b60005481565b600060026000838152602001908152602001600020600401549050919050565b6060600260008381526020019081526020016000206000018054610c609061192f565b80601f0160208091040260200160405190810160405280929190818152602001828054610c8c9061192f565b8015610cd95780601f10610cae57610100808354040283529160200191610cd9565b820191906000526020600020905b815481529060010190602001808311610cbc57829003601f168201915b50505050509050919050565b600080600090505b600980549050811015610d88578273ffffffffffffffffffffffffffffffffffffffff1660098281548110610d2557610d24611c20565b5b9060005260206000200160009054906101000a900473ffffffffffffffffffffffffffffffffffffffff1673ffffffffffffffffffffffffffffffffffffffff1603610d75576001915050610d8e565b8080610d8090611c4f565b915050610ced565b50600090505b919050565b60006002600084815260200190815260200160002060010160008373ffffffffffffffffffffffffffffffffffffffff1673ffffffffffffffffffffffffffffffffffffffff16815260200190815260200160002054905092915050565b600660009054906101000a900473ffffffffffffffffffffffffffffffffffffffff1673ffffffffffffffffffffffffffffffffffffffff163373ffffffffffffffffffffffffffffffffffffffff1614610e81576040517f08c379a0000000000000000000000000000000000000000000000000000000008152600401610e7890611a1d565b60405180910390fd5b600154600054610e919190611a3d565b421115610ed3576040517f08c379a0000000000000000000000000000000000000000000000000000000008152600401610eca90611abd565b60405180910390fd5b610edc83610ce5565b610f1b576040517f08c379a0000000000000000000000000000000000000000000000000000000008152600401610f1290611ce3565b60405180910390fd5b60006002600084815260200190815260200160002090506000808260010160008773ffffffffffffffffffffffffffffffffffffffff1673ffffffffffffffffffffffffffffffffffffffff1681526020019081526020016000205411610f83576000610f86565b60015b9050600081610fd6578260020160008773ffffffffffffffffffffffffffffffffffffffff1673ffffffffffffffffffffffffffffffffffffffff16815260200190815260200160002054611019565b8260010160008773ffffffffffffffffffffffffffffffffffffffff1673ffffffffffffffffffffffffffffffffffffffff168152602001908152602001600020545b905061102484610674565b61102d82610674565b600560008973ffffffffffffffffffffffffffffffffffffffff1673ffffffffffffffffffffffffffffffffffffffff168152602001908152602001600020546110779190611a3d565b10156110b8576040517f08c379a00000000000000000000000000000000000000000000000000000000081526004016110af90611b95565b60405180910390fd5b6110c184610674565b6110ca82610674565b600560008973ffffffffffffffffffffffffffffffffffffffff1673ffffffffffffffffffffffffffffffffffffffff168152602001908152602001600020546111149190611a3d565b61111e9190611bb5565b600560008873ffffffffffffffffffffffffffffffffffffffff1673ffffffffffffffffffffffffffffffffffffffff16815260200190815260200160002081905550838360010160008873ffffffffffffffffffffffffffffffffffffffff1673ffffffffffffffffffffffffffffffffffffffff1681526020019081526020016000208190555060008360020160008873ffffffffffffffffffffffffffffffffffffffff1673ffffffffffffffffffffffffffffffffffffffff16815260200190815260200160002081905550811561121c57808484600301546112059190611a3d565b61120f9190611bb5565b8360030181905550611253565b838360030160008282546112309190611a3d565b925050819055508083600401600082825461124b9190611bb5565b925050819055505b7f67b60bc862e9c013a238015361df4bb95a4abfe78309ba4a4d7a04d2fe29e4328585600160405161128793929190611be9565b60405180910390a1505050505050565b60006002600084815260200190815260200160002060020160008373ffffffffffffffffffffffffffffffffffffffff1673ffffffffffffffffffffffffffffffffffffffff16815260200190815260200160002054905092915050565b6000806000905060005b60035481101561135457816002600083815260200190815260200160002060040154111561134157600260008281526020019081526020016000206004015491505b808061134c90611c4f565b9150506112ff565b508091505090565b600081156113bf576002600085815260200190815260200160002060010160008473ffffffffffffffffffffffffffffffffffffffff1673ffffffffffffffffffffffffffffffffffffffff168152602001908152602001600020549050611416565b6002600085815260200190815260200160002060020160008473ffffffffffffffffffffffffffffffffffffffff1673ffffffffffffffffffffffffffffffffffffffff1681526020019081526020016000205490505b9392505050565b600060015460005461142f9190611a3d565b4211611470576040517f08c379a000000000000000000000000000000000000000000000000000000000815260040161146790611d4f565b60405180910390fd5b60008060005b600354811015611534578160026000838152602001908152602001600020600401546114a06112f5565b60026000858152602001908152602001600020600301546114c19190611a3d565b6114cb9190611bb5565b11156115215780925060026000828152602001908152602001600020600401546114f36112f5565b60026000848152602001908152602001600020600301546115149190611a3d565b61151e9190611bb5565b91505b808061152c90611c4f565b915050611476565b50819250505090565b60035481565b60056020528060005260406000206000915090505481565b600760009054906101000a900473ffffffffffffffffffffffffffffffffffffffff1681565b6000819050919050565b61159481611581565b82525050565b60006020820190506115af600083018461158b565b92915050565b600080fd5b6115c381611581565b81146115ce57600080fd5b50565b6000813590506115e0816115ba565b92915050565b6000602082840312156115fc576115fb6115b5565b5b600061160a848285016115d1565b91505092915050565b600081519050919050565b600082825260208201905092915050565b60005b8381101561164d578082015181840152602081019050611632565b60008484015250505050565b6000601f19601f8301169050919050565b600061167582611613565b61167f818561161e565b935061168f81856020860161162f565b61169881611659565b840191505092915050565b600060608201905081810360008301526116bd818661166a565b90506116cc602083018561158b565b6116d9604083018461158b565b949350505050565b600060208201905081810360008301526116fb818461166a565b905092915050565b600073ffffffffffffffffffffffffffffffffffffffff82169050919050565b600061172e82611703565b9050919050565b61173e81611723565b811461174957600080fd5b50565b60008135905061175b81611735565b92915050565b60008060006060848603121561177a576117796115b5565b5b60006117888682870161174c565b9350506020611799868287016115d1565b92505060406117aa868287016115d1565b9150509250925092565b6000602082840312156117ca576117c96115b5565b5b60006117d88482850161174c565b91505092915050565b60008115159050919050565b6117f6816117e1565b82525050565b600060208201905061181160008301846117ed565b92915050565b6000806040838503121561182e5761182d6115b5565b5b600061183c858286016115d1565b925050602061184d8582860161174c565b9150509250929050565b611860816117e1565b811461186b57600080fd5b50565b60008135905061187d81611857565b92915050565b60008060006060848603121561189c5761189b6115b5565b5b60006118aa868287016115d1565b93505060206118bb8682870161174c565b92505060406118cc8682870161186e565b9150509250925092565b6118df81611723565b82525050565b60006020820190506118fa60008301846118d6565b92915050565b7f4e487b7100000000000000000000000000000000000000000000000000000000600052602260045260246000fd5b6000600282049050600182168061194757607f821691505b60208210810361195a57611959611900565b5b50919050565b7f4e487b7100000000000000000000000000000000000000000000000000000000600052601160045260246000fd5b600061199a82611581565b91506119a583611581565b92508282026119b381611581565b915082820484148315176119ca576119c9611960565b5b5092915050565b7f4e6f742063616c6c656420766961204661630000000000000000000000000000600082015250565b6000611a0760128361161e565b9150611a12826119d1565b602082019050919050565b60006020820190508181036000830152611a36816119fa565b9050919050565b6000611a4882611581565b9150611a5383611581565b9250828201905080821115611a6b57611a6a611960565b5b92915050565b7f506f6c6c2074696d652065787069726564210000000000000000000000000000600082015250565b6000611aa760128361161e565b9150611ab282611a71565b602082019050919050565b60006020820190508181036000830152611ad681611a9a565b9050919050565b7f4e6f7420656c696769626c650000000000000000000000000000000000000000600082015250565b6000611b13600c8361161e565b9150611b1e82611add565b602082019050919050565b60006020820190508181036000830152611b4281611b06565b9050919050565b7f4e6f7420656e6f75676820637265646974000000000000000000000000000000600082015250565b6000611b7f60118361161e565b9150611b8a82611b49565b602082019050919050565b60006020820190508181036000830152611bae81611b72565b9050919050565b6000611bc082611581565b9150611bcb83611581565b9250828203905081811115611be357611be2611960565b5b92915050565b6000606082019050611bfe600083018661158b565b611c0b602083018561158b565b611c1860408301846117ed565b949350505050565b7f4e487b7100000000000000000000000000000000000000000000000000000000600052603260045260246000fd5b6000611c5a82611581565b91507fffffffffffffffffffffffffffffffffffffffffffffffffffffffffffffffff8203611c8c57611c8b611960565b5b600182019050919050565b7f4e6f7420456c696769626c650000000000000000000000000000000000000000600082015250565b6000611ccd600c8361161e565b9150611cd882611c97565b602082019050919050565b60006020820190508181036000830152611cfc81611cc0565b9050919050565b7f506f6c6c2074696d65206e6f7420657870697265642079657421000000000000600082015250565b6000611d39601a8361161e565b9150611d4482611d03565b602082019050919050565b60006020820190508181036000830152611d6881611d2c565b905091905056fea26469706673582212204c79d91d8bf6f540437eb1ee46c7d61e165637996a52964a04492b86ef87646564736f6c63430008110033a26469706673582212205de9783269f321a052213f8d810b2cd7fcc29f8f44349f0731edbcb157444f8064736f6c63430008110033",
  "devdoc": {
    "kind": "dev",
    "methods": {},
    "version": 1
  },
  "userdoc": {
    "kind": "user",
    "methods": {},
    "version": 1
  },
  "storageLayout": {
    "storage": [
      {
        "astId": 6,
        "contract": "contracts/Factory.sol:Factory",
        "label": "PollArray",
        "offset": 0,
        "slot": "0",
        "type": "t_array(t_contract(Poll)1076)dyn_storage"
      },
      {
        "astId": 9,
        "contract": "contracts/Factory.sol:Factory",
        "label": "isActive",
        "offset": 0,
        "slot": "1",
        "type": "t_array(t_bool)dyn_storage"
      },
      {
        "astId": 12,
        "contract": "contracts/Factory.sol:Factory",
        "label": "results",
        "offset": 0,
        "slot": "2",
        "type": "t_array(t_uint256)dyn_storage"
      },
      {
        "astId": 19,
        "contract": "contracts/Factory.sol:Factory",
        "label": "dummy",
        "offset": 0,
        "slot": "3",
        "type": "t_uint256"
      }
    ],
    "types": {
      "t_array(t_bool)dyn_storage": {
        "base": "t_bool",
        "encoding": "dynamic_array",
        "label": "bool[]",
        "numberOfBytes": "32"
      },
      "t_array(t_contract(Poll)1076)dyn_storage": {
        "base": "t_contract(Poll)1076",
        "encoding": "dynamic_array",
        "label": "contract Poll[]",
        "numberOfBytes": "32"
      },
      "t_array(t_uint256)dyn_storage": {
        "base": "t_uint256",
        "encoding": "dynamic_array",
        "label": "uint256[]",
        "numberOfBytes": "32"
      },
      "t_bool": {
        "encoding": "inplace",
        "label": "bool",
        "numberOfBytes": "1"
      },
      "t_contract(Poll)1076": {
        "encoding": "inplace",
        "label": "contract Poll",
        "numberOfBytes": "20"
      },
      "t_uint256": {
        "encoding": "inplace",
        "label": "uint256",
        "numberOfBytes": "32"
      }
    }
  }
}