{
  "address": "0x5FbDB2315678afecb367f032d93F642f64180aa3",
  "abi": [
    {
      "anonymous": false,
      "inputs": [
        {
          "indexed": false,
          "internalType": "string",
          "name": "_title",
          "type": "string"
        }
      ],
      "name": "PollCreated",
      "type": "event"
    },
    {
      "inputs": [
        {
          "internalType": "uint256",
          "name": "",
          "type": "uint256"
        }
      ],
      "name": "PollArray",
      "outputs": [
        {
          "internalType": "contract Poll",
          "name": "",
          "type": "address"
        }
      ],
      "stateMutability": "view",
      "type": "function"
    },
    {
      "inputs": [
        {
          "internalType": "string",
          "name": "_title",
          "type": "string"
        },
        {
          "internalType": "address[]",
          "name": "_eligibles",
          "type": "address[]"
        },
        {
          "internalType": "string[]",
          "name": "_opTitle",
          "type": "string[]"
        },
        {
          "internalType": "uint256",
          "name": "_validSeconds",
          "type": "uint256"
        }
      ],
      "name": "createPoll",
      "outputs": [],
      "stateMutability": "nonpayable",
      "type": "function"
    },
    {
      "inputs": [
        {
          "internalType": "uint256",
          "name": "_pollIndex",
          "type": "uint256"
        },
        {
          "internalType": "address",
          "name": "voter",
          "type": "address"
        }
      ],
      "name": "getCredit",
      "outputs": [
        {
          "internalType": "uint256",
          "name": "",
          "type": "uint256"
        }
      ],
      "stateMutability": "view",
      "type": "function"
    },
    {
      "inputs": [
        {
          "internalType": "uint256",
          "name": "_pollIndex",
          "type": "uint256"
        },
        {
          "internalType": "uint256",
          "name": "index",
          "type": "uint256"
        }
      ],
      "name": "getEligible",
      "outputs": [
        {
          "internalType": "address",
          "name": "",
          "type": "address"
        }
      ],
      "stateMutability": "view",
      "type": "function"
    },
    {
      "inputs": [
        {
          "internalType": "uint256",
          "name": "_pollIndex",
          "type": "uint256"
        }
      ],
      "name": "getIsActive",
      "outputs": [
        {
          "internalType": "bool",
          "name": "",
          "type": "bool"
        }
      ],
      "stateMutability": "view",
      "type": "function"
    },
    {
      "inputs": [
        {
          "internalType": "uint256",
          "name": "_pollIndex",
          "type": "uint256"
        }
      ],
      "name": "getNumEligibles",
      "outputs": [
        {
          "internalType": "uint256",
          "name": "",
          "type": "uint256"
        }
      ],
      "stateMutability": "view",
      "type": "function"
    },
    {
      "inputs": [],
      "name": "getNumEvents",
      "outputs": [
        {
          "internalType": "uint256",
          "name": "",
          "type": "uint256"
        }
      ],
      "stateMutability": "view",
      "type": "function"
    },
    {
      "inputs": [
        {
          "internalType": "uint256",
          "name": "_pollIndex",
          "type": "uint256"
        }
      ],
      "name": "getNumOptions",
      "outputs": [
        {
          "internalType": "uint256",
          "name": "",
          "type": "uint256"
        }
      ],
      "stateMutability": "view",
      "type": "function"
    },
    {
      "inputs": [
        {
          "internalType": "uint256",
          "name": "_pollIndex",
          "type": "uint256"
        },
        {
          "internalType": "uint256",
          "name": "optionId",
          "type": "uint256"
        }
      ],
      "name": "getOpNegativeWeight",
      "outputs": [
        {
          "internalType": "uint256",
          "name": "",
          "type": "uint256"
        }
      ],
      "stateMutability": "view",
      "type": "function"
    },
    {
      "inputs": [
        {
          "internalType": "uint256",
          "name": "_pollIndex",
          "type": "uint256"
        },
        {
          "internalType": "uint256",
          "name": "optionId",
          "type": "uint256"
        }
      ],
      "name": "getOpPositiveWeight",
      "outputs": [
        {
          "internalType": "uint256",
          "name": "",
          "type": "uint256"
        }
      ],
      "stateMutability": "view",
      "type": "function"
    },
    {
      "inputs": [
        {
          "internalType": "uint256",
          "name": "_pollIndex",
          "type": "uint256"
        },
        {
          "internalType": "uint256",
          "name": "optionId",
          "type": "uint256"
        }
      ],
      "name": "getOpTitle",
      "outputs": [
        {
          "internalType": "string",
          "name": "",
          "type": "string"
        }
      ],
      "stateMutability": "view",
      "type": "function"
    },
    {
      "inputs": [
        {
          "internalType": "uint256",
          "name": "_pollIndex",
          "type": "uint256"
        }
      ],
      "name": "getTitle",
      "outputs": [
        {
          "internalType": "string",
          "name": "",
          "type": "string"
        }
      ],
      "stateMutability": "view",
      "type": "function"
    },
    {
      "inputs": [
        {
          "internalType": "uint256",
          "name": "_pollIndex",
          "type": "uint256"
        },
        {
          "internalType": "uint256",
          "name": "optionId",
          "type": "uint256"
        }
      ],
      "name": "getVoterOpNegativeWeight",
      "outputs": [
        {
          "internalType": "uint256",
          "name": "",
          "type": "uint256"
        }
      ],
      "stateMutability": "view",
      "type": "function"
    },
    {
      "inputs": [
        {
          "internalType": "uint256",
          "name": "_pollIndex",
          "type": "uint256"
        },
        {
          "internalType": "uint256",
          "name": "optionId",
          "type": "uint256"
        }
      ],
      "name": "getVoterOpPositiveWeight",
      "outputs": [
        {
          "internalType": "uint256",
          "name": "",
          "type": "uint256"
        }
      ],
      "stateMutability": "view",
      "type": "function"
    },
    {
      "inputs": [],
      "name": "getcurrentTime",
      "outputs": [
        {
          "internalType": "uint256",
          "name": "",
          "type": "uint256"
        }
      ],
      "stateMutability": "view",
      "type": "function"
    },
    {
      "inputs": [
        {
          "internalType": "uint256",
          "name": "_pollIndex",
          "type": "uint256"
        }
      ],
      "name": "getdeployTime",
      "outputs": [
        {
          "internalType": "uint256",
          "name": "",
          "type": "uint256"
        }
      ],
      "stateMutability": "view",
      "type": "function"
    },
    {
      "inputs": [
        {
          "internalType": "uint256",
          "name": "_pollIndex",
          "type": "uint256"
        }
      ],
      "name": "getresult",
      "outputs": [
        {
          "internalType": "uint256",
          "name": "",
          "type": "uint256"
        }
      ],
      "stateMutability": "view",
      "type": "function"
    },
    {
      "inputs": [
        {
          "internalType": "uint256",
          "name": "_pollIndex",
          "type": "uint256"
        }
      ],
      "name": "getvalidSeconds",
      "outputs": [
        {
          "internalType": "uint256",
          "name": "",
          "type": "uint256"
        }
      ],
      "stateMutability": "view",
      "type": "function"
    },
    {
      "inputs": [
        {
          "internalType": "uint256",
          "name": "",
          "type": "uint256"
        }
      ],
      "name": "isActive",
      "outputs": [
        {
          "internalType": "bool",
          "name": "",
          "type": "bool"
        }
      ],
      "stateMutability": "view",
      "type": "function"
    },
    {
      "inputs": [
        {
          "internalType": "uint256",
          "name": "_pollIndex",
          "type": "uint256"
        },
        {
          "internalType": "uint256",
          "name": "_optionIndex",
          "type": "uint256"
        },
        {
          "internalType": "uint256",
          "name": "_num",
          "type": "uint256"
        }
      ],
      "name": "negativeVote",
      "outputs": [],
      "stateMutability": "nonpayable",
      "type": "function"
    },
    {
      "inputs": [
        {
          "internalType": "uint256",
          "name": "_pollIndex",
          "type": "uint256"
        },
        {
          "internalType": "uint256",
          "name": "_optionIndex",
          "type": "uint256"
        },
        {
          "internalType": "uint256",
          "name": "_num",
          "type": "uint256"
        }
      ],
      "name": "positiveVote",
      "outputs": [],
      "stateMutability": "nonpayable",
      "type": "function"
    },
    {
      "inputs": [
        {
          "internalType": "uint256",
          "name": "_pollIndex",
          "type": "uint256"
        }
      ],
      "name": "publishResult",
      "outputs": [],
      "stateMutability": "nonpayable",
      "type": "function"
    },
    {
      "inputs": [
        {
          "internalType": "uint256",
          "name": "",
          "type": "uint256"
        }
      ],
      "name": "results",
      "outputs": [
        {
          "internalType": "uint256",
          "name": "",
          "type": "uint256"
        }
      ],
      "stateMutability": "view",
      "type": "function"
    }
  ],
  "transactionHash": "0x7f897cc793b2d27304a34aeab725bbc1e82d3020d6599a9bf6656c4a8b80e279",
  "args": [],
  "numDeployments": 1,
  "solcInputHash": "56b35ce94ad422b181fdaa53c711ae52",
  "bytecode": "0x6080604052600060035534801561001557600080fd5b50614ca6806100256000396000f3fe60806040523480156200001157600080fd5b50600436106200016c5760003560e01c80637229eec911620000d5578063d1b878e91162000087578063d1b878e9146200049d578063d5a0580e14620004d3578063deb84df71462000509578063df8704aa1462000529578063edeb797c146200055f578063efbcb9721462000595576200016c565b80637229eec9146200038357806382afd23b14620003b95780638f6f069814620003ef578063929a79b1146200041157806392e821a51462000447578063be8596a11462000467576200016c565b80633a467eea116200012f5780633a467eea146200027f5780633b0364d4146200029f5780634119314a14620002d557806352e35d4c146200030b578063625ac7e514620003415780636c9c7c601462000363576200016c565b8063059a7f6214620001715780631a3c8b6f14620001a75780631b0c27da14620001dd5780631c8a7ffa14620002135780631e9df9401462000249575b600080fd5b6200018f600480360381019062000189919062001601565b620005cb565b6040516200019e9190620016e2565b60405180910390f35b620001c56004803603810190620001bf91906200176b565b6200069a565b604051620001d49190620017c3565b60405180910390f35b620001fb6004803603810190620001f59190620017e0565b62000763565b6040516200020a9190620017c3565b60405180910390f35b6200023160048036038101906200022b919062001601565b62000788565b604051620002409190620017c3565b60405180910390f35b62000267600480360381019062000261919062001601565b62000853565b604051620002769190620017c3565b60405180910390f35b6200029d600480360381019062000297919062001812565b6200091e565b005b620002bd6004803603810190620002b79190620017e0565b62000a57565b604051620002cc91906200188b565b60405180910390f35b620002f36004803603810190620002ed919062001601565b62000a97565b604051620003029190620018b9565b60405180910390f35b620003296004803603810190620003239190620017e0565b62000b60565b604051620003389190620017c3565b60405180910390f35b6200034b62000c1b565b6040516200035a9190620017c3565b60405180910390f35b6200038160048036038101906200037b919062001812565b62000c27565b005b620003a160048036038101906200039b9190620017e0565b62000d60565b604051620003b0919062001941565b60405180910390f35b620003d76004803603810190620003d19190620017e0565b62000da0565b604051620003e691906200188b565b60405180910390f35b620003f962000dd5565b604051620004089190620017c3565b60405180910390f35b6200042f6004803603810190620004299190620017e0565b62000ddd565b6040516200043e9190620016e2565b60405180910390f35b6200046560048036038101906200045f9190620017e0565b62000e9e565b005b6200048560048036038101906200047f9190620017e0565b62000fd7565b604051620004949190620017c3565b60405180910390f35b620004bb6004803603810190620004b59190620017e0565b62001092565b604051620004ca9190620017c3565b60405180910390f35b620004f16004803603810190620004eb9190620017e0565b6200114d565b604051620005009190620017c3565b60405180910390f35b62000527600480360381019062000521919062001c81565b62001208565b005b62000547600480360381019062000541919062001601565b62001357565b604051620005569190620017c3565b60405180910390f35b6200057d6004803603810190620005779190620017e0565b62001420565b6040516200058c9190620017c3565b60405180910390f35b620005b36004803603810190620005ad919062001601565b620014db565b604051620005c29190620017c3565b60405180910390f35b606060008381548110620005e457620005e362001d50565b5b9060005260206000200160009054906101000a900473ffffffffffffffffffffffffffffffffffffffff1673ffffffffffffffffffffffffffffffffffffffff16639df10dff836040518263ffffffff1660e01b8152600401620006499190620017c3565b600060405180830381865afa15801562000667573d6000803e3d6000fd5b505050506040513d6000823e3d601f19601f8201168201806040525081019062000692919062001dfd565b905092915050565b6000808381548110620006b257620006b162001d50565b5b9060005260206000200160009054906101000a900473ffffffffffffffffffffffffffffffffffffffff1673ffffffffffffffffffffffffffffffffffffffff166357344e6f836040518263ffffffff1660e01b8152600401620007179190620018b9565b602060405180830381865afa15801562000735573d6000803e3d6000fd5b505050506040513d601f19601f820116820180604052508101906200075b919062001e65565b905092915050565b600281815481106200077457600080fd5b906000526020600020016000915090505481565b6000808381548110620007a0576200079f62001d50565b5b9060005260206000200160009054906101000a900473ffffffffffffffffffffffffffffffffffffffff1673ffffffffffffffffffffffffffffffffffffffff1663b6c9ebbb83336040518363ffffffff1660e01b81526004016200080792919062001e97565b602060405180830381865afa15801562000825573d6000803e3d6000fd5b505050506040513d601f19601f820116820180604052508101906200084b919062001e65565b905092915050565b60008083815481106200086b576200086a62001d50565b5b9060005260206000200160009054906101000a900473ffffffffffffffffffffffffffffffffffffffff1673ffffffffffffffffffffffffffffffffffffffff16639fd18e8883336040518363ffffffff1660e01b8152600401620008d292919062001e97565b602060405180830381865afa158015620008f0573d6000803e3d6000fd5b505050506040513d601f19601f8201168201806040525081019062000916919062001e65565b905092915050565b600115156001848154811062000939576200093862001d50565b5b90600052602060002090602091828204019190069054906101000a900460ff161515146200099e576040517f08c379a0000000000000000000000000000000000000000000000000000000008152600401620009959062001f14565b60405180910390fd5b60008381548110620009b557620009b462001d50565b5b9060005260206000200160009054906101000a900473ffffffffffffffffffffffffffffffffffffffff1673ffffffffffffffffffffffffffffffffffffffff16634e28b8093384846040518463ffffffff1660e01b815260040162000a1e9392919062001f36565b600060405180830381600087803b15801562000a3957600080fd5b505af115801562000a4e573d6000803e3d6000fd5b50505050505050565b60006001828154811062000a705762000a6f62001d50565b5b90600052602060002090602091828204019190069054906101000a900460ff169050919050565b600080838154811062000aaf5762000aae62001d50565b5b9060005260206000200160009054906101000a900473ffffffffffffffffffffffffffffffffffffffff1673ffffffffffffffffffffffffffffffffffffffff1663175fea77836040518263ffffffff1660e01b815260040162000b149190620017c3565b602060405180830381865afa15801562000b32573d6000803e3d6000fd5b505050506040513d601f19601f8201168201806040525081019062000b58919062001f8a565b905092915050565b600080828154811062000b785762000b7762001d50565b5b9060005260206000200160009054906101000a900473ffffffffffffffffffffffffffffffffffffffff1673ffffffffffffffffffffffffffffffffffffffff1663018432b66040518163ffffffff1660e01b8152600401602060405180830381865afa15801562000bee573d6000803e3d6000fd5b505050506040513d601f19601f8201168201806040525081019062000c14919062001e65565b9050919050565b60008080549050905090565b600115156001848154811062000c425762000c4162001d50565b5b90600052602060002090602091828204019190069054906101000a900460ff1615151462000ca7576040517f08c379a000000000000000000000000000000000000000000000000000000000815260040162000c9e9062001f14565b60405180910390fd5b6000838154811062000cbe5762000cbd62001d50565b5b9060005260206000200160009054906101000a900473ffffffffffffffffffffffffffffffffffffffff1673ffffffffffffffffffffffffffffffffffffffff1663a44290de3384846040518463ffffffff1660e01b815260040162000d279392919062001f36565b600060405180830381600087803b15801562000d4257600080fd5b505af115801562000d57573d6000803e3d6000fd5b50505050505050565b6000818154811062000d7157600080fd5b906000526020600020016000915054906101000a900473ffffffffffffffffffffffffffffffffffffffff1681565b6001818154811062000db157600080fd5b9060005260206000209060209182820401919006915054906101000a900460ff1681565b600042905090565b60606000828154811062000df65762000df562001d50565b5b9060005260206000200160009054906101000a900473ffffffffffffffffffffffffffffffffffffffff1673ffffffffffffffffffffffffffffffffffffffff16634a79d50c6040518163ffffffff1660e01b8152600401600060405180830381865afa15801562000e6c573d6000803e3d6000fd5b505050506040513d6000823e3d601f19601f8201168201806040525081019062000e97919062001dfd565b9050919050565b60016003600082825462000eb3919062001feb565b925050819055506000818154811062000ed15762000ed062001d50565b5b9060005260206000200160009054906101000a900473ffffffffffffffffffffffffffffffffffffffff1673ffffffffffffffffffffffffffffffffffffffff1663de2927896040518163ffffffff1660e01b8152600401602060405180830381865afa15801562000f47573d6000803e3d6000fd5b505050506040513d601f19601f8201168201806040525081019062000f6d919062001e65565b6002828154811062000f845762000f8362001d50565b5b906000526020600020018190555060006001828154811062000fab5762000faa62001d50565b5b90600052602060002090602091828204019190066101000a81548160ff02191690831515021790555050565b600080828154811062000fef5762000fee62001d50565b5b9060005260206000200160009054906101000a900473ffffffffffffffffffffffffffffffffffffffff1673ffffffffffffffffffffffffffffffffffffffff1663a140a06f6040518163ffffffff1660e01b8152600401602060405180830381865afa15801562001065573d6000803e3d6000fd5b505050506040513d601f19601f820116820180604052508101906200108b919062001e65565b9050919050565b6000808281548110620010aa57620010a962001d50565b5b9060005260206000200160009054906101000a900473ffffffffffffffffffffffffffffffffffffffff1673ffffffffffffffffffffffffffffffffffffffff1663de2927896040518163ffffffff1660e01b8152600401602060405180830381865afa15801562001120573d6000803e3d6000fd5b505050506040513d601f19601f8201168201806040525081019062001146919062001e65565b9050919050565b600080828154811062001165576200116462001d50565b5b9060005260206000200160009054906101000a900473ffffffffffffffffffffffffffffffffffffffff1673ffffffffffffffffffffffffffffffffffffffff16637a40624b6040518163ffffffff1660e01b8152600401602060405180830381865afa158015620011db573d6000803e3d6000fd5b505050506040513d601f19601f8201168201806040525081019062001201919062001e65565b9050919050565b600033858585856040516200121d90620015a4565b6200122d95949392919062002216565b604051809103906000f0801580156200124a573d6000803e3d6000fd5b509080600181540180825580915050600190039060005260206000200160009091909190916101000a81548173ffffffffffffffffffffffffffffffffffffffff021916908373ffffffffffffffffffffffffffffffffffffffff1602179055507f9bf8745d989aef219097b36114b7e27d7f74b56a6e55ab898a6c4e4a0489f75884604051620012dc9190620016e2565b60405180910390a1600180806001815401808255809150506001900390600052602060002090602091828204019190069091909190916101000a81548160ff02191690831515021790555060026000908060018154018082558091505060019003906000526020600020016000909190919091505550505050565b60008083815481106200136f576200136e62001d50565b5b9060005260206000200160009054906101000a900473ffffffffffffffffffffffffffffffffffffffff1673ffffffffffffffffffffffffffffffffffffffff166340069e7b836040518263ffffffff1660e01b8152600401620013d49190620017c3565b602060405180830381865afa158015620013f2573d6000803e3d6000fd5b505050506040513d601f19601f8201168201806040525081019062001418919062001e65565b905092915050565b600080828154811062001438576200143762001d50565b5b9060005260206000200160009054906101000a900473ffffffffffffffffffffffffffffffffffffffff1673ffffffffffffffffffffffffffffffffffffffff1663e32fe90b6040518163ffffffff1660e01b8152600401602060405180830381865afa158015620014ae573d6000803e3d6000fd5b505050506040513d601f19601f82011682018060405250810190620014d4919062001e65565b9050919050565b6000808381548110620014f357620014f262001d50565b5b9060005260206000200160009054906101000a900473ffffffffffffffffffffffffffffffffffffffff1673ffffffffffffffffffffffffffffffffffffffff16637f2af6d5836040518263ffffffff1660e01b8152600401620015589190620017c3565b602060405180830381865afa15801562001576573d6000803e3d6000fd5b505050506040513d601f19601f820116820180604052508101906200159c919062001e65565b905092915050565b6129e8806200228983390190565b6000604051905090565b600080fd5b600080fd5b6000819050919050565b620015db81620015c6565b8114620015e757600080fd5b50565b600081359050620015fb81620015d0565b92915050565b600080604083850312156200161b576200161a620015bc565b5b60006200162b85828601620015ea565b92505060206200163e85828601620015ea565b9150509250929050565b600081519050919050565b600082825260208201905092915050565b60005b838110156200168457808201518184015260208101905062001667565b60008484015250505050565b6000601f19601f8301169050919050565b6000620016ae8262001648565b620016ba818562001653565b9350620016cc81856020860162001664565b620016d78162001690565b840191505092915050565b60006020820190508181036000830152620016fe8184620016a1565b905092915050565b600073ffffffffffffffffffffffffffffffffffffffff82169050919050565b6000620017338262001706565b9050919050565b620017458162001726565b81146200175157600080fd5b50565b60008135905062001765816200173a565b92915050565b60008060408385031215620017855762001784620015bc565b5b60006200179585828601620015ea565b9250506020620017a88582860162001754565b9150509250929050565b620017bd81620015c6565b82525050565b6000602082019050620017da6000830184620017b2565b92915050565b600060208284031215620017f957620017f8620015bc565b5b60006200180984828501620015ea565b91505092915050565b6000806000606084860312156200182e576200182d620015bc565b5b60006200183e86828701620015ea565b93505060206200185186828701620015ea565b92505060406200186486828701620015ea565b9150509250925092565b60008115159050919050565b62001885816200186e565b82525050565b6000602082019050620018a260008301846200187a565b92915050565b620018b38162001726565b82525050565b6000602082019050620018d06000830184620018a8565b92915050565b6000819050919050565b600062001901620018fb620018f58462001706565b620018d6565b62001706565b9050919050565b60006200191582620018e0565b9050919050565b6000620019298262001908565b9050919050565b6200193b816200191c565b82525050565b600060208201905062001958600083018462001930565b92915050565b600080fd5b600080fd5b7f4e487b7100000000000000000000000000000000000000000000000000000000600052604160045260246000fd5b620019a28262001690565b810181811067ffffffffffffffff82111715620019c457620019c362001968565b5b80604052505050565b6000620019d9620015b2565b9050620019e7828262001997565b919050565b600067ffffffffffffffff82111562001a0a5762001a0962001968565b5b62001a158262001690565b9050602081019050919050565b82818337600083830152505050565b600062001a4862001a4284620019ec565b620019cd565b90508281526020810184848401111562001a675762001a6662001963565b5b62001a7484828562001a22565b509392505050565b600082601f83011262001a945762001a936200195e565b5b813562001aa684826020860162001a31565b91505092915050565b600067ffffffffffffffff82111562001acd5762001acc62001968565b5b602082029050602081019050919050565b600080fd5b600062001afa62001af48462001aaf565b620019cd565b9050808382526020820190506020840283018581111562001b205762001b1f62001ade565b5b835b8181101562001b4d578062001b38888262001754565b84526020840193505060208101905062001b22565b5050509392505050565b600082601f83011262001b6f5762001b6e6200195e565b5b813562001b8184826020860162001ae3565b91505092915050565b600067ffffffffffffffff82111562001ba85762001ba762001968565b5b602082029050602081019050919050565b600062001bd062001bca8462001b8a565b620019cd565b9050808382526020820190506020840283018581111562001bf65762001bf562001ade565b5b835b8181101562001c4457803567ffffffffffffffff81111562001c1f5762001c1e6200195e565b5b80860162001c2e898262001a7c565b8552602085019450505060208101905062001bf8565b5050509392505050565b600082601f83011262001c665762001c656200195e565b5b813562001c7884826020860162001bb9565b91505092915050565b6000806000806080858703121562001c9e5762001c9d620015bc565b5b600085013567ffffffffffffffff81111562001cbf5762001cbe620015c1565b5b62001ccd8782880162001a7c565b945050602085013567ffffffffffffffff81111562001cf15762001cf0620015c1565b5b62001cff8782880162001b57565b935050604085013567ffffffffffffffff81111562001d235762001d22620015c1565b5b62001d318782880162001c4e565b925050606062001d4487828801620015ea565b91505092959194509250565b7f4e487b7100000000000000000000000000000000000000000000000000000000600052603260045260246000fd5b600062001d9662001d9084620019ec565b620019cd565b90508281526020810184848401111562001db55762001db462001963565b5b62001dc284828562001664565b509392505050565b600082601f83011262001de25762001de16200195e565b5b815162001df484826020860162001d7f565b91505092915050565b60006020828403121562001e165762001e15620015bc565b5b600082015167ffffffffffffffff81111562001e375762001e36620015c1565b5b62001e458482850162001dca565b91505092915050565b60008151905062001e5f81620015d0565b92915050565b60006020828403121562001e7e5762001e7d620015bc565b5b600062001e8e8482850162001e4e565b91505092915050565b600060408201905062001eae6000830185620017b2565b62001ebd6020830184620018a8565b9392505050565b7f54696d65277320757020666f72207468697320706f6c6c20616c726561647921600082015250565b600062001efc60208362001653565b915062001f098262001ec4565b602082019050919050565b6000602082019050818103600083015262001f2f8162001eed565b9050919050565b600060608201905062001f4d6000830186620018a8565b62001f5c6020830185620017b2565b62001f6b6040830184620017b2565b949350505050565b60008151905062001f84816200173a565b92915050565b60006020828403121562001fa35762001fa2620015bc565b5b600062001fb38482850162001f73565b91505092915050565b7f4e487b7100000000000000000000000000000000000000000000000000000000600052601160045260246000fd5b600062001ff882620015c6565b91506200200583620015c6565b925082820190508082111562002020576200201f62001fbc565b5b92915050565b600081519050919050565b600082825260208201905092915050565b6000819050602082019050919050565b6200205d8162001726565b82525050565b600062002071838362002052565b60208301905092915050565b6000602082019050919050565b6000620020978262002026565b620020a3818562002031565b9350620020b08362002042565b8060005b83811015620020e7578151620020cb888262002063565b9750620020d8836200207d565b925050600181019050620020b4565b5085935050505092915050565b600081519050919050565b600082825260208201905092915050565b6000819050602082019050919050565b600082825260208201905092915050565b60006200213e8262001648565b6200214a818562002120565b93506200215c81856020860162001664565b620021678162001690565b840191505092915050565b600062002180838362002131565b905092915050565b6000602082019050919050565b6000620021a282620020f4565b620021ae8185620020ff565b935083602082028501620021c28562002110565b8060005b85811015620022045784840389528151620021e2858262002172565b9450620021ef8362002188565b925060208a01995050600181019050620021c6565b50829750879550505050505092915050565b600060a0820190506200222d6000830188620018a8565b8181036020830152620022418187620016a1565b905081810360408301526200225781866200208a565b905081810360608301526200226d818562002195565b90506200227e6080830184620017b2565b969550505050505056fe608060405260646004553480156200001657600080fd5b50604051620029e8380380620029e883398181016040528101906200003c9190620006b1565b33600660006101000a81548173ffffffffffffffffffffffffffffffffffffffff021916908373ffffffffffffffffffffffffffffffffffffffff16021790555084600760006101000a81548173ffffffffffffffffffffffffffffffffffffffff021916908373ffffffffffffffffffffffffffffffffffffffff1602179055508360089081620000cf9190620009d7565b508260099080519060200190620000e8929190620001fe565b508151600381905550426000819055508060018190555060005b835181101562000185576004546005600086848151811062000129576200012862000abe565b5b602002602001015173ffffffffffffffffffffffffffffffffffffffff1673ffffffffffffffffffffffffffffffffffffffff1681526020019081526020016000208190555080806200017c9062000b1c565b91505062000102565b5060005b8251811015620001f2576000600260008381526020019081526020016000209050838281518110620001c057620001bf62000abe565b5b6020026020010151816000019081620001da9190620009d7565b50508080620001e99062000b1c565b91505062000189565b50505050505062000b69565b8280548282559060005260206000209081019282156200027a579160200282015b82811115620002795782518260006101000a81548173ffffffffffffffffffffffffffffffffffffffff021916908373ffffffffffffffffffffffffffffffffffffffff160217905550916020019190600101906200021f565b5b5090506200028991906200028d565b5090565b5b80821115620002a85760008160009055506001016200028e565b5090565b6000604051905090565b600080fd5b600080fd5b600073ffffffffffffffffffffffffffffffffffffffff82169050919050565b6000620002ed82620002c0565b9050919050565b620002ff81620002e0565b81146200030b57600080fd5b50565b6000815190506200031f81620002f4565b92915050565b600080fd5b600080fd5b6000601f19601f8301169050919050565b7f4e487b7100000000000000000000000000000000000000000000000000000000600052604160045260246000fd5b6200037a826200032f565b810181811067ffffffffffffffff821117156200039c576200039b62000340565b5b80604052505050565b6000620003b1620002ac565b9050620003bf82826200036f565b919050565b600067ffffffffffffffff821115620003e257620003e162000340565b5b620003ed826200032f565b9050602081019050919050565b60005b838110156200041a578082015181840152602081019050620003fd565b60008484015250505050565b60006200043d6200043784620003c4565b620003a5565b9050828152602081018484840111156200045c576200045b6200032a565b5b62000469848285620003fa565b509392505050565b600082601f83011262000489576200048862000325565b5b81516200049b84826020860162000426565b91505092915050565b600067ffffffffffffffff821115620004c257620004c162000340565b5b602082029050602081019050919050565b600080fd5b6000620004ef620004e984620004a4565b620003a5565b90508083825260208201905060208402830185811115620005155762000514620004d3565b5b835b818110156200054257806200052d88826200030e565b84526020840193505060208101905062000517565b5050509392505050565b600082601f83011262000564576200056362000325565b5b815162000576848260208601620004d8565b91505092915050565b600067ffffffffffffffff8211156200059d576200059c62000340565b5b602082029050602081019050919050565b6000620005c5620005bf846200057f565b620003a5565b90508083825260208201905060208402830185811115620005eb57620005ea620004d3565b5b835b818110156200063957805167ffffffffffffffff81111562000614576200061362000325565b5b80860162000623898262000471565b85526020850194505050602081019050620005ed565b5050509392505050565b600082601f8301126200065b576200065a62000325565b5b81516200066d848260208601620005ae565b91505092915050565b6000819050919050565b6200068b8162000676565b81146200069757600080fd5b50565b600081519050620006ab8162000680565b92915050565b600080600080600060a08688031215620006d057620006cf620002b6565b5b6000620006e0888289016200030e565b955050602086015167ffffffffffffffff811115620007045762000703620002bb565b5b620007128882890162000471565b945050604086015167ffffffffffffffff811115620007365762000735620002bb565b5b62000744888289016200054c565b935050606086015167ffffffffffffffff811115620007685762000767620002bb565b5b620007768882890162000643565b925050608062000789888289016200069a565b9150509295509295909350565b600081519050919050565b7f4e487b7100000000000000000000000000000000000000000000000000000000600052602260045260246000fd5b60006002820490506001821680620007e957607f821691505b602082108103620007ff57620007fe620007a1565b5b50919050565b60008190508160005260206000209050919050565b60006020601f8301049050919050565b600082821b905092915050565b600060088302620008697fffffffffffffffffffffffffffffffffffffffffffffffffffffffffffffffff826200082a565b6200087586836200082a565b95508019841693508086168417925050509392505050565b6000819050919050565b6000620008b8620008b2620008ac8462000676565b6200088d565b62000676565b9050919050565b6000819050919050565b620008d48362000897565b620008ec620008e382620008bf565b84845462000837565b825550505050565b600090565b62000903620008f4565b62000910818484620008c9565b505050565b5b8181101562000938576200092c600082620008f9565b60018101905062000916565b5050565b601f8211156200098757620009518162000805565b6200095c846200081a565b810160208510156200096c578190505b620009846200097b856200081a565b83018262000915565b50505b505050565b600082821c905092915050565b6000620009ac600019846008026200098c565b1980831691505092915050565b6000620009c7838362000999565b9150826002028217905092915050565b620009e28262000796565b67ffffffffffffffff811115620009fe57620009fd62000340565b5b62000a0a8254620007d0565b62000a178282856200093c565b600060209050601f83116001811462000a4f576000841562000a3a578287015190505b62000a468582620009b9565b86555062000ab6565b601f19841662000a5f8662000805565b60005b8281101562000a895784890151825560018201915060208501945060208101905062000a62565b8683101562000aa9578489015162000aa5601f89168262000999565b8355505b6001600288020188555050505b505050505050565b7f4e487b7100000000000000000000000000000000000000000000000000000000600052603260045260246000fd5b7f4e487b7100000000000000000000000000000000000000000000000000000000600052601160045260246000fd5b600062000b298262000676565b91507fffffffffffffffffffffffffffffffffffffffffffffffffffffffffffffffff820362000b5e5762000b5d62000aed565b5b600182019050919050565b611e6f8062000b796000396000f3fe60806040526004361061014b5760003560e01c80639df10dff116100b6578063c2b939fe1161006f578063c2b939fe146104ee578063d7921a5b14610519578063de29278914610556578063e32fe90b14610581578063f5f52f90146105ac578063f851a440146105e95761014b565b80639df10dff146103b35780639e336894146103f05780639fd18e881461042d578063a140a06f1461046a578063a44290de14610495578063b6c9ebbb146104b15761014b565b80634a79d50c116101085780634a79d50c1461029c5780634c1b8ffd146102c75780634e28b809146102f257806357344e6f1461030e5780637a40624b1461034b5780637f2af6d5146103765761014b565b8063018432b614610150578063175fea771461017b57806327d4dbe9146101b857806340069e7b146101e3578063409e220514610220578063473a6d521461025f575b600080fd5b34801561015c57600080fd5b50610165610614565b6040516101729190611664565b60405180910390f35b34801561018757600080fd5b506101a2600480360381019061019d91906116b0565b61061a565b6040516101af919061171e565b60405180910390f35b3480156101c457600080fd5b506101cd610659565b6040516101da9190611664565b60405180910390f35b3480156101ef57600080fd5b5061020a600480360381019061020591906116b0565b61065f565b6040516102179190611664565b60405180910390f35b34801561022c57600080fd5b50610247600480360381019061024291906116b0565b61067f565b604051610256939291906117c9565b60405180910390f35b34801561026b57600080fd5b50610286600480360381019061028191906116b0565b610731565b6040516102939190611664565b60405180910390f35b3480156102a857600080fd5b506102b1610752565b6040516102be9190611807565b60405180910390f35b3480156102d357600080fd5b506102dc6107e0565b6040516102e99190611664565b60405180910390f35b61030c60048036038101906103079190611855565b6107e5565b005b34801561031a57600080fd5b50610335600480360381019061033091906118a8565b610c8b565b6040516103429190611664565b60405180910390f35b34801561035757600080fd5b50610360610cd4565b60405161036d9190611664565b60405180910390f35b34801561038257600080fd5b5061039d600480360381019061039891906116b0565b610cda565b6040516103aa9190611664565b60405180910390f35b3480156103bf57600080fd5b506103da60048036038101906103d591906116b0565b610cfa565b6040516103e79190611807565b60405180910390f35b3480156103fc57600080fd5b50610417600480360381019061041291906118a8565b610da2565b60405161042491906118f0565b60405180910390f35b34801561043957600080fd5b50610454600480360381019061044f919061190b565b610e50565b6040516104619190611664565b60405180910390f35b34801561047657600080fd5b5061047f610eae565b60405161048c9190611664565b60405180910390f35b6104af60048036038101906104aa9190611855565b610ebb565b005b3480156104bd57600080fd5b506104d860048036038101906104d3919061190b565b611361565b6040516104e59190611664565b60405180910390f35b3480156104fa57600080fd5b506105036113bf565b6040516105109190611664565b60405180910390f35b34801561052557600080fd5b50610540600480360381019061053b9190611977565b611426565b60405161054d9190611664565b60405180910390f35b34801561056257600080fd5b5061056b6114e7565b6040516105789190611664565b60405180910390f35b34801561058d57600080fd5b50610596611607565b6040516105a39190611664565b60405180910390f35b3480156105b857600080fd5b506105d360048036038101906105ce91906118a8565b61160d565b6040516105e09190611664565b60405180910390f35b3480156105f557600080fd5b506105fe611625565b60405161060b919061171e565b60405180910390f35b60015481565b6009818154811061062a57600080fd5b906000526020600020016000915054906101000a900473ffffffffffffffffffffffffffffffffffffffff1681565b60045481565b600060026000838152602001908152602001600020600301549050919050565b60026020528060005260406000206000915090508060000180546106a2906119f9565b80601f01602080910402602001604051908101604052809291908181526020018280546106ce906119f9565b801561071b5780601f106106f05761010080835404028352916020019161071b565b820191906000526020600020905b8154815290600101906020018083116106fe57829003601f168201915b5050505050908060030154908060040154905083565b6000600182836107419190611a59565b61074b9190611a59565b9050919050565b6008805461075f906119f9565b80601f016020809104026020016040519081016040528092919081815260200182805461078b906119f9565b80156107d85780601f106107ad576101008083540402835291602001916107d8565b820191906000526020600020905b8154815290600101906020018083116107bb57829003601f168201915b505050505081565b600181565b600660009054906101000a900473ffffffffffffffffffffffffffffffffffffffff1673ffffffffffffffffffffffffffffffffffffffff163373ffffffffffffffffffffffffffffffffffffffff1614610875576040517f08c379a000000000000000000000000000000000000000000000000000000000815260040161086c90611ae7565b60405180910390fd5b6001546000546108859190611b07565b4211156108c7576040517f08c379a00000000000000000000000000000000000000000000000000000000081526004016108be90611b87565b60405180910390fd5b6108d083610da2565b61090f576040517f08c379a000000000000000000000000000000000000000000000000000000000815260040161090690611bf3565b60405180910390fd5b60006002600084815260200190815260200160002090506000808260010160008773ffffffffffffffffffffffffffffffffffffffff1673ffffffffffffffffffffffffffffffffffffffff168152602001908152602001600020541161097757600061097a565b60015b90506000816109ca578260020160008773ffffffffffffffffffffffffffffffffffffffff1673ffffffffffffffffffffffffffffffffffffffff16815260200190815260200160002054610a0d565b8260010160008773ffffffffffffffffffffffffffffffffffffffff1673ffffffffffffffffffffffffffffffffffffffff168152602001908152602001600020545b9050610a1884610731565b610a2182610731565b600560008973ffffffffffffffffffffffffffffffffffffffff1673ffffffffffffffffffffffffffffffffffffffff16815260200190815260200160002054610a6b9190611b07565b1015610aac576040517f08c379a0000000000000000000000000000000000000000000000000000000008152600401610aa390611c5f565b60405180910390fd5b610ab584610731565b610abe82610731565b600560008973ffffffffffffffffffffffffffffffffffffffff1673ffffffffffffffffffffffffffffffffffffffff16815260200190815260200160002054610b089190611b07565b610b129190611c7f565b600560008873ffffffffffffffffffffffffffffffffffffffff1673ffffffffffffffffffffffffffffffffffffffff1681526020019081526020016000208190555060008360010160008873ffffffffffffffffffffffffffffffffffffffff1673ffffffffffffffffffffffffffffffffffffffff16815260200190815260200160002081905550838360020160008873ffffffffffffffffffffffffffffffffffffffff1673ffffffffffffffffffffffffffffffffffffffff168152602001908152602001600020819055508115610c235780836003016000828254610bfc9190611c7f565b9250508190555083836004016000828254610c179190611b07565b92505081905550610c47565b80848460040154610c349190611b07565b610c3e9190611c7f565b83600401819055505b7f67b60bc862e9c013a238015361df4bb95a4abfe78309ba4a4d7a04d2fe29e43285856000604051610c7b93929190611cb3565b60405180910390a1505050505050565b6000600560008373ffffffffffffffffffffffffffffffffffffffff1673ffffffffffffffffffffffffffffffffffffffff168152602001908152602001600020549050919050565b60005481565b600060026000838152602001908152602001600020600401549050919050565b6060600260008381526020019081526020016000206000018054610d1d906119f9565b80601f0160208091040260200160405190810160405280929190818152602001828054610d49906119f9565b8015610d965780601f10610d6b57610100808354040283529160200191610d96565b820191906000526020600020905b815481529060010190602001808311610d7957829003601f168201915b50505050509050919050565b600080600090505b600980549050811015610e45578273ffffffffffffffffffffffffffffffffffffffff1660098281548110610de257610de1611cea565b5b9060005260206000200160009054906101000a900473ffffffffffffffffffffffffffffffffffffffff1673ffffffffffffffffffffffffffffffffffffffff1603610e32576001915050610e4b565b8080610e3d90611d19565b915050610daa565b50600090505b919050565b60006002600084815260200190815260200160002060010160008373ffffffffffffffffffffffffffffffffffffffff1673ffffffffffffffffffffffffffffffffffffffff16815260200190815260200160002054905092915050565b6000600980549050905090565b600660009054906101000a900473ffffffffffffffffffffffffffffffffffffffff1673ffffffffffffffffffffffffffffffffffffffff163373ffffffffffffffffffffffffffffffffffffffff1614610f4b576040517f08c379a0000000000000000000000000000000000000000000000000000000008152600401610f4290611ae7565b60405180910390fd5b600154600054610f5b9190611b07565b421115610f9d576040517f08c379a0000000000000000000000000000000000000000000000000000000008152600401610f9490611b87565b60405180910390fd5b610fa683610da2565b610fe5576040517f08c379a0000000000000000000000000000000000000000000000000000000008152600401610fdc90611dad565b60405180910390fd5b60006002600084815260200190815260200160002090506000808260010160008773ffffffffffffffffffffffffffffffffffffffff1673ffffffffffffffffffffffffffffffffffffffff168152602001908152602001600020541161104d576000611050565b60015b90506000816110a0578260020160008773ffffffffffffffffffffffffffffffffffffffff1673ffffffffffffffffffffffffffffffffffffffff168152602001908152602001600020546110e3565b8260010160008773ffffffffffffffffffffffffffffffffffffffff1673ffffffffffffffffffffffffffffffffffffffff168152602001908152602001600020545b90506110ee84610731565b6110f782610731565b600560008973ffffffffffffffffffffffffffffffffffffffff1673ffffffffffffffffffffffffffffffffffffffff168152602001908152602001600020546111419190611b07565b1015611182576040517f08c379a000000000000000000000000000000000000000000000000000000000815260040161117990611c5f565b60405180910390fd5b61118b84610731565b61119482610731565b600560008973ffffffffffffffffffffffffffffffffffffffff1673ffffffffffffffffffffffffffffffffffffffff168152602001908152602001600020546111de9190611b07565b6111e89190611c7f565b600560008873ffffffffffffffffffffffffffffffffffffffff1673ffffffffffffffffffffffffffffffffffffffff16815260200190815260200160002081905550838360010160008873ffffffffffffffffffffffffffffffffffffffff1673ffffffffffffffffffffffffffffffffffffffff1681526020019081526020016000208190555060008360020160008873ffffffffffffffffffffffffffffffffffffffff1673ffffffffffffffffffffffffffffffffffffffff1681526020019081526020016000208190555081156112e657808484600301546112cf9190611b07565b6112d99190611c7f565b836003018190555061131d565b838360030160008282546112fa9190611b07565b92505081905550808360040160008282546113159190611c7f565b925050819055505b7f67b60bc862e9c013a238015361df4bb95a4abfe78309ba4a4d7a04d2fe29e4328585600160405161135193929190611cb3565b60405180910390a1505050505050565b60006002600084815260200190815260200160002060020160008373ffffffffffffffffffffffffffffffffffffffff1673ffffffffffffffffffffffffffffffffffffffff16815260200190815260200160002054905092915050565b6000806000905060005b60035481101561141e57816002600083815260200190815260200160002060040154111561140b57600260008281526020019081526020016000206004015491505b808061141690611d19565b9150506113c9565b508091505090565b60008115611489576002600085815260200190815260200160002060010160008473ffffffffffffffffffffffffffffffffffffffff1673ffffffffffffffffffffffffffffffffffffffff1681526020019081526020016000205490506114e0565b6002600085815260200190815260200160002060020160008473ffffffffffffffffffffffffffffffffffffffff1673ffffffffffffffffffffffffffffffffffffffff1681526020019081526020016000205490505b9392505050565b60006001546000546114f99190611b07565b421161153a576040517f08c379a000000000000000000000000000000000000000000000000000000000815260040161153190611e19565b60405180910390fd5b60008060005b6003548110156115fe5781600260008381526020019081526020016000206004015461156a6113bf565b600260008581526020019081526020016000206003015461158b9190611b07565b6115959190611c7f565b11156115eb5780925060026000828152602001908152602001600020600401546115bd6113bf565b60026000848152602001908152602001600020600301546115de9190611b07565b6115e89190611c7f565b91505b80806115f690611d19565b915050611540565b50819250505090565b60035481565b60056020528060005260406000206000915090505481565b600760009054906101000a900473ffffffffffffffffffffffffffffffffffffffff1681565b6000819050919050565b61165e8161164b565b82525050565b60006020820190506116796000830184611655565b92915050565b600080fd5b61168d8161164b565b811461169857600080fd5b50565b6000813590506116aa81611684565b92915050565b6000602082840312156116c6576116c561167f565b5b60006116d48482850161169b565b91505092915050565b600073ffffffffffffffffffffffffffffffffffffffff82169050919050565b6000611708826116dd565b9050919050565b611718816116fd565b82525050565b6000602082019050611733600083018461170f565b92915050565b600081519050919050565b600082825260208201905092915050565b60005b83811015611773578082015181840152602081019050611758565b60008484015250505050565b6000601f19601f8301169050919050565b600061179b82611739565b6117a58185611744565b93506117b5818560208601611755565b6117be8161177f565b840191505092915050565b600060608201905081810360008301526117e38186611790565b90506117f26020830185611655565b6117ff6040830184611655565b949350505050565b600060208201905081810360008301526118218184611790565b905092915050565b611832816116fd565b811461183d57600080fd5b50565b60008135905061184f81611829565b92915050565b60008060006060848603121561186e5761186d61167f565b5b600061187c86828701611840565b935050602061188d8682870161169b565b925050604061189e8682870161169b565b9150509250925092565b6000602082840312156118be576118bd61167f565b5b60006118cc84828501611840565b91505092915050565b60008115159050919050565b6118ea816118d5565b82525050565b600060208201905061190560008301846118e1565b92915050565b600080604083850312156119225761192161167f565b5b60006119308582860161169b565b925050602061194185828601611840565b9150509250929050565b611954816118d5565b811461195f57600080fd5b50565b6000813590506119718161194b565b92915050565b6000806000606084860312156119905761198f61167f565b5b600061199e8682870161169b565b93505060206119af86828701611840565b92505060406119c086828701611962565b9150509250925092565b7f4e487b7100000000000000000000000000000000000000000000000000000000600052602260045260246000fd5b60006002820490506001821680611a1157607f821691505b602082108103611a2457611a236119ca565b5b50919050565b7f4e487b7100000000000000000000000000000000000000000000000000000000600052601160045260246000fd5b6000611a648261164b565b9150611a6f8361164b565b9250828202611a7d8161164b565b91508282048414831517611a9457611a93611a2a565b5b5092915050565b7f4e6f742063616c6c656420766961204661630000000000000000000000000000600082015250565b6000611ad1601283611744565b9150611adc82611a9b565b602082019050919050565b60006020820190508181036000830152611b0081611ac4565b9050919050565b6000611b128261164b565b9150611b1d8361164b565b9250828201905080821115611b3557611b34611a2a565b5b92915050565b7f506f6c6c2074696d652065787069726564210000000000000000000000000000600082015250565b6000611b71601283611744565b9150611b7c82611b3b565b602082019050919050565b60006020820190508181036000830152611ba081611b64565b9050919050565b7f4e6f7420656c696769626c650000000000000000000000000000000000000000600082015250565b6000611bdd600c83611744565b9150611be882611ba7565b602082019050919050565b60006020820190508181036000830152611c0c81611bd0565b9050919050565b7f4e6f7420656e6f75676820637265646974000000000000000000000000000000600082015250565b6000611c49601183611744565b9150611c5482611c13565b602082019050919050565b60006020820190508181036000830152611c7881611c3c565b9050919050565b6000611c8a8261164b565b9150611c958361164b565b9250828203905081811115611cad57611cac611a2a565b5b92915050565b6000606082019050611cc86000830186611655565b611cd56020830185611655565b611ce260408301846118e1565b949350505050565b7f4e487b7100000000000000000000000000000000000000000000000000000000600052603260045260246000fd5b6000611d248261164b565b91507fffffffffffffffffffffffffffffffffffffffffffffffffffffffffffffffff8203611d5657611d55611a2a565b5b600182019050919050565b7f4e6f7420456c696769626c650000000000000000000000000000000000000000600082015250565b6000611d97600c83611744565b9150611da282611d61565b602082019050919050565b60006020820190508181036000830152611dc681611d8a565b9050919050565b7f506f6c6c2074696d65206e6f7420657870697265642079657421000000000000600082015250565b6000611e03601a83611744565b9150611e0e82611dcd565b602082019050919050565b60006020820190508181036000830152611e3281611df6565b905091905056fea2646970667358221220328c103c9dd4c438ce6994bf50aad0c5e578dbcacbbb4394df22ee01ed742d9464736f6c63430008110033a26469706673582212207c1be6b48212570c839f7e00c6bf640dfb935973c8f88cee29e3502a7b9459c664736f6c63430008110033",
  "devdoc": {
    "kind": "dev",
    "methods": {},
    "version": 1
  },
  "userdoc": {
    "kind": "user",
    "methods": {},
    "version": 1
  },
  "storageLayout": {
    "storage": [
      {
        "astId": 6,
        "contract": "contracts/Factory.sol:Factory",
        "label": "PollArray",
        "offset": 0,
        "slot": "0",
        "type": "t_array(t_contract(Poll)1114)dyn_storage"
      },
      {
        "astId": 9,
        "contract": "contracts/Factory.sol:Factory",
        "label": "isActive",
        "offset": 0,
        "slot": "1",
        "type": "t_array(t_bool)dyn_storage"
      },
      {
        "astId": 12,
        "contract": "contracts/Factory.sol:Factory",
        "label": "results",
        "offset": 0,
        "slot": "2",
        "type": "t_array(t_uint256)dyn_storage"
      },
      {
        "astId": 19,
        "contract": "contracts/Factory.sol:Factory",
        "label": "dummy",
        "offset": 0,
        "slot": "3",
        "type": "t_uint256"
      }
    ],
    "types": {
      "t_array(t_bool)dyn_storage": {
        "base": "t_bool",
        "encoding": "dynamic_array",
        "label": "bool[]",
        "numberOfBytes": "32"
      },
      "t_array(t_contract(Poll)1114)dyn_storage": {
        "base": "t_contract(Poll)1114",
        "encoding": "dynamic_array",
        "label": "contract Poll[]",
        "numberOfBytes": "32"
      },
      "t_array(t_uint256)dyn_storage": {
        "base": "t_uint256",
        "encoding": "dynamic_array",
        "label": "uint256[]",
        "numberOfBytes": "32"
      },
      "t_bool": {
        "encoding": "inplace",
        "label": "bool",
        "numberOfBytes": "1"
      },
      "t_contract(Poll)1114": {
        "encoding": "inplace",
        "label": "contract Poll",
        "numberOfBytes": "20"
      },
      "t_uint256": {
        "encoding": "inplace",
        "label": "uint256",
        "numberOfBytes": "32"
      }
    }
  }
}