{
  "address": "0x9fE46736679d2D9a65F0992F2272dE9f3c7fa6e0",
  "abi": [
    {
      "anonymous": false,
      "inputs": [
        {
          "indexed": false,
          "internalType": "string",
          "name": "_title",
          "type": "string"
        }
      ],
      "name": "PollCreated",
      "type": "event"
    },
    {
      "inputs": [
        {
          "internalType": "uint256",
          "name": "",
          "type": "uint256"
        }
      ],
      "name": "PollArray",
      "outputs": [
        {
          "internalType": "contract Poll",
          "name": "",
          "type": "address"
        }
      ],
      "stateMutability": "view",
      "type": "function"
    },
    {
      "inputs": [
        {
          "internalType": "string",
          "name": "_title",
          "type": "string"
        },
        {
          "internalType": "address[]",
          "name": "_eligibles",
          "type": "address[]"
        },
        {
          "internalType": "string[]",
          "name": "_opTitle",
          "type": "string[]"
        }
      ],
      "name": "createPoll",
      "outputs": [],
      "stateMutability": "nonpayable",
      "type": "function"
    },
    {
      "inputs": [
        {
          "internalType": "uint256",
          "name": "_pollIndex",
          "type": "uint256"
        },
        {
          "internalType": "address",
          "name": "voter",
          "type": "address"
        }
      ],
      "name": "getCredit",
      "outputs": [
        {
          "internalType": "uint256",
          "name": "",
          "type": "uint256"
        }
      ],
      "stateMutability": "view",
      "type": "function"
    },
    {
      "inputs": [],
      "name": "getNumEvents",
      "outputs": [
        {
          "internalType": "uint256",
          "name": "",
          "type": "uint256"
        }
      ],
      "stateMutability": "view",
      "type": "function"
    },
    {
      "inputs": [
        {
          "internalType": "uint256",
          "name": "_pollIndex",
          "type": "uint256"
        }
      ],
      "name": "getNumOptions",
      "outputs": [
        {
          "internalType": "uint256",
          "name": "",
          "type": "uint256"
        }
      ],
      "stateMutability": "view",
      "type": "function"
    },
    {
      "inputs": [
        {
          "internalType": "uint256",
          "name": "_pollIndex",
          "type": "uint256"
        },
        {
          "internalType": "uint256",
          "name": "optionId",
          "type": "uint256"
        }
      ],
      "name": "getOpNegativeWeight",
      "outputs": [
        {
          "internalType": "uint256",
          "name": "",
          "type": "uint256"
        }
      ],
      "stateMutability": "view",
      "type": "function"
    },
    {
      "inputs": [
        {
          "internalType": "uint256",
          "name": "_pollIndex",
          "type": "uint256"
        },
        {
          "internalType": "uint256",
          "name": "optionId",
          "type": "uint256"
        }
      ],
      "name": "getOpPositiveWeight",
      "outputs": [
        {
          "internalType": "uint256",
          "name": "",
          "type": "uint256"
        }
      ],
      "stateMutability": "view",
      "type": "function"
    },
    {
      "inputs": [
        {
          "internalType": "uint256",
          "name": "_pollIndex",
          "type": "uint256"
        },
        {
          "internalType": "uint256",
          "name": "optionId",
          "type": "uint256"
        }
      ],
      "name": "getOpTitle",
      "outputs": [
        {
          "internalType": "string",
          "name": "",
          "type": "string"
        }
      ],
      "stateMutability": "view",
      "type": "function"
    },
    {
      "inputs": [
        {
          "internalType": "uint256",
          "name": "_pollIndex",
          "type": "uint256"
        }
      ],
      "name": "getTitle",
      "outputs": [
        {
          "internalType": "string",
          "name": "",
          "type": "string"
        }
      ],
      "stateMutability": "view",
      "type": "function"
    },
    {
      "inputs": [
        {
          "internalType": "uint256",
          "name": "_pollIndex",
          "type": "uint256"
        },
        {
          "internalType": "uint256",
          "name": "optionId",
          "type": "uint256"
        }
      ],
      "name": "getVoterOpNegativeWeight",
      "outputs": [
        {
          "internalType": "uint256",
          "name": "",
          "type": "uint256"
        }
      ],
      "stateMutability": "view",
      "type": "function"
    },
    {
      "inputs": [
        {
          "internalType": "uint256",
          "name": "_pollIndex",
          "type": "uint256"
        },
        {
          "internalType": "uint256",
          "name": "optionId",
          "type": "uint256"
        }
      ],
      "name": "getVoterOpPositiveWeight",
      "outputs": [
        {
          "internalType": "uint256",
          "name": "",
          "type": "uint256"
        }
      ],
      "stateMutability": "view",
      "type": "function"
    },
    {
      "inputs": [
        {
          "internalType": "uint256",
          "name": "_pollIndex",
          "type": "uint256"
        }
      ],
      "name": "getresult",
      "outputs": [
        {
          "internalType": "uint256",
          "name": "",
          "type": "uint256"
        }
      ],
      "stateMutability": "view",
      "type": "function"
    },
    {
      "inputs": [
        {
          "internalType": "uint256",
          "name": "_pollIndex",
          "type": "uint256"
        },
        {
          "internalType": "uint256",
          "name": "_optionIndex",
          "type": "uint256"
        },
        {
          "internalType": "uint256",
          "name": "_num",
          "type": "uint256"
        }
      ],
      "name": "negativeVote",
      "outputs": [],
      "stateMutability": "nonpayable",
      "type": "function"
    },
    {
      "inputs": [
        {
          "internalType": "uint256",
          "name": "_pollIndex",
          "type": "uint256"
        },
        {
          "internalType": "uint256",
          "name": "_optionIndex",
          "type": "uint256"
        },
        {
          "internalType": "uint256",
          "name": "_num",
          "type": "uint256"
        }
      ],
      "name": "positiveVote",
      "outputs": [],
      "stateMutability": "nonpayable",
      "type": "function"
    }
  ],
  "transactionHash": "0x0a57d429d79fb6bdd5f476f7f93b7a89c1fc7cb539369ce8af1c4b6f32990135",
  "args": [],
  "numDeployments": 2,
  "solcInputHash": "0fe6a96f82d955d0872badf68ca79db8",
  "bytecode": "0x608060405234801561001057600080fd5b50613ebc806100206000396000f3fe60806040523480156200001157600080fd5b5060043610620001005760003560e01c80636c9c7c601162000099578063d1b878e9116200006f578063d1b878e914620002cb578063df8704aa1462000301578063edeb797c1462000337578063efbcb972146200036d5762000100565b80636c9c7c60146200023f5780637229eec9146200025f578063929a79b114620002955762000100565b80631e9df94011620000db5780631e9df94014620001a75780633a467eea14620001dd57806358fb292a14620001fd578063625ac7e5146200021d5762000100565b8063059a7f6214620001055780631a3c8b6f146200013b5780631c8a7ffa1462000171575b600080fd5b6200012360048036038101906200011d919062000d94565b620003a3565b60405162000132919062000e75565b60405180910390f35b62000159600480360381019062000153919062000efe565b62000472565b60405162000168919062000f56565b60405180910390f35b6200018f600480360381019062000189919062000d94565b6200053b565b6040516200019e919062000f56565b60405180910390f35b620001c56004803603810190620001bf919062000d94565b62000606565b604051620001d4919062000f56565b60405180910390f35b620001fb6004803603810190620001f5919062000f73565b620006d1565b005b6200021b6004803603810190620002159190620012f2565b6200078a565b005b6200022762000869565b60405162000236919062000f56565b60405180910390f35b6200025d600480360381019062000257919062000f73565b62000875565b005b6200027d6004803603810190620002779190620013ab565b6200092e565b6040516200028c919062001448565b60405180910390f35b620002b36004803603810190620002ad9190620013ab565b6200096e565b604051620002c2919062000e75565b60405180910390f35b620002e96004803603810190620002e39190620013ab565b62000a2f565b604051620002f8919062000f56565b60405180910390f35b6200031f600480360381019062000319919062000d94565b62000aea565b6040516200032e919062000f56565b60405180910390f35b6200035560048036038101906200034f9190620013ab565b62000bb3565b60405162000364919062000f56565b60405180910390f35b6200038b600480360381019062000385919062000d94565b62000c6e565b6040516200039a919062000f56565b60405180910390f35b606060008381548110620003bc57620003bb62001465565b5b9060005260206000200160009054906101000a900473ffffffffffffffffffffffffffffffffffffffff1673ffffffffffffffffffffffffffffffffffffffff16639df10dff836040518263ffffffff1660e01b815260040162000421919062000f56565b600060405180830381865afa1580156200043f573d6000803e3d6000fd5b505050506040513d6000823e3d601f19601f820116820180604052508101906200046a919062001512565b905092915050565b60008083815481106200048a576200048962001465565b5b9060005260206000200160009054906101000a900473ffffffffffffffffffffffffffffffffffffffff1673ffffffffffffffffffffffffffffffffffffffff166357344e6f836040518263ffffffff1660e01b8152600401620004ef919062001574565b602060405180830381865afa1580156200050d573d6000803e3d6000fd5b505050506040513d601f19601f82011682018060405250810190620005339190620015a8565b905092915050565b600080838154811062000553576200055262001465565b5b9060005260206000200160009054906101000a900473ffffffffffffffffffffffffffffffffffffffff1673ffffffffffffffffffffffffffffffffffffffff1663b6c9ebbb83336040518363ffffffff1660e01b8152600401620005ba929190620015da565b602060405180830381865afa158015620005d8573d6000803e3d6000fd5b505050506040513d601f19601f82011682018060405250810190620005fe9190620015a8565b905092915050565b60008083815481106200061e576200061d62001465565b5b9060005260206000200160009054906101000a900473ffffffffffffffffffffffffffffffffffffffff1673ffffffffffffffffffffffffffffffffffffffff16639fd18e8883336040518363ffffffff1660e01b815260040162000685929190620015da565b602060405180830381865afa158015620006a3573d6000803e3d6000fd5b505050506040513d601f19601f82011682018060405250810190620006c99190620015a8565b905092915050565b60008381548110620006e857620006e762001465565b5b9060005260206000200160009054906101000a900473ffffffffffffffffffffffffffffffffffffffff1673ffffffffffffffffffffffffffffffffffffffff16634e28b8093384846040518463ffffffff1660e01b8152600401620007519392919062001607565b600060405180830381600087803b1580156200076c57600080fd5b505af115801562000781573d6000803e3d6000fd5b50505050505050565b6000338484846040516200079e9062000d37565b620007ad949392919062001834565b604051809103906000f080158015620007ca573d6000803e3d6000fd5b509080600181540180825580915050600190039060005260206000200160009091909190916101000a81548173ffffffffffffffffffffffffffffffffffffffff021916908373ffffffffffffffffffffffffffffffffffffffff1602179055507f9bf8745d989aef219097b36114b7e27d7f74b56a6e55ab898a6c4e4a0489f758836040516200085c919062000e75565b60405180910390a1505050565b60008080549050905090565b600083815481106200088c576200088b62001465565b5b9060005260206000200160009054906101000a900473ffffffffffffffffffffffffffffffffffffffff1673ffffffffffffffffffffffffffffffffffffffff1663a44290de3384846040518463ffffffff1660e01b8152600401620008f59392919062001607565b600060405180830381600087803b1580156200091057600080fd5b505af115801562000925573d6000803e3d6000fd5b50505050505050565b600081815481106200093f57600080fd5b906000526020600020016000915054906101000a900473ffffffffffffffffffffffffffffffffffffffff1681565b60606000828154811062000987576200098662001465565b5b9060005260206000200160009054906101000a900473ffffffffffffffffffffffffffffffffffffffff1673ffffffffffffffffffffffffffffffffffffffff16634a79d50c6040518163ffffffff1660e01b8152600401600060405180830381865afa158015620009fd573d6000803e3d6000fd5b505050506040513d6000823e3d601f19601f8201168201806040525081019062000a28919062001512565b9050919050565b600080828154811062000a475762000a4662001465565b5b9060005260206000200160009054906101000a900473ffffffffffffffffffffffffffffffffffffffff1673ffffffffffffffffffffffffffffffffffffffff1663de2927896040518163ffffffff1660e01b8152600401602060405180830381865afa15801562000abd573d6000803e3d6000fd5b505050506040513d601f19601f8201168201806040525081019062000ae39190620015a8565b9050919050565b600080838154811062000b025762000b0162001465565b5b9060005260206000200160009054906101000a900473ffffffffffffffffffffffffffffffffffffffff1673ffffffffffffffffffffffffffffffffffffffff166340069e7b836040518263ffffffff1660e01b815260040162000b67919062000f56565b602060405180830381865afa15801562000b85573d6000803e3d6000fd5b505050506040513d601f19601f8201168201806040525081019062000bab9190620015a8565b905092915050565b600080828154811062000bcb5762000bca62001465565b5b9060005260206000200160009054906101000a900473ffffffffffffffffffffffffffffffffffffffff1673ffffffffffffffffffffffffffffffffffffffff1663e32fe90b6040518163ffffffff1660e01b8152600401602060405180830381865afa15801562000c41573d6000803e3d6000fd5b505050506040513d601f19601f8201168201806040525081019062000c679190620015a8565b9050919050565b600080838154811062000c865762000c8562001465565b5b9060005260206000200160009054906101000a900473ffffffffffffffffffffffffffffffffffffffff1673ffffffffffffffffffffffffffffffffffffffff16637f2af6d5836040518263ffffffff1660e01b815260040162000ceb919062000f56565b602060405180830381865afa15801562000d09573d6000803e3d6000fd5b505050506040513d601f19601f8201168201806040525081019062000d2f9190620015a8565b905092915050565b6125f0806200189783390190565b6000604051905090565b600080fd5b600080fd5b6000819050919050565b62000d6e8162000d59565b811462000d7a57600080fd5b50565b60008135905062000d8e8162000d63565b92915050565b6000806040838503121562000dae5762000dad62000d4f565b5b600062000dbe8582860162000d7d565b925050602062000dd18582860162000d7d565b9150509250929050565b600081519050919050565b600082825260208201905092915050565b60005b8381101562000e1757808201518184015260208101905062000dfa565b60008484015250505050565b6000601f19601f8301169050919050565b600062000e418262000ddb565b62000e4d818562000de6565b935062000e5f81856020860162000df7565b62000e6a8162000e23565b840191505092915050565b6000602082019050818103600083015262000e91818462000e34565b905092915050565b600073ffffffffffffffffffffffffffffffffffffffff82169050919050565b600062000ec68262000e99565b9050919050565b62000ed88162000eb9565b811462000ee457600080fd5b50565b60008135905062000ef88162000ecd565b92915050565b6000806040838503121562000f185762000f1762000d4f565b5b600062000f288582860162000d7d565b925050602062000f3b8582860162000ee7565b9150509250929050565b62000f508162000d59565b82525050565b600060208201905062000f6d600083018462000f45565b92915050565b60008060006060848603121562000f8f5762000f8e62000d4f565b5b600062000f9f8682870162000d7d565b935050602062000fb28682870162000d7d565b925050604062000fc58682870162000d7d565b9150509250925092565b600080fd5b600080fd5b7f4e487b7100000000000000000000000000000000000000000000000000000000600052604160045260246000fd5b620010138262000e23565b810181811067ffffffffffffffff8211171562001035576200103462000fd9565b5b80604052505050565b60006200104a62000d45565b905062001058828262001008565b919050565b600067ffffffffffffffff8211156200107b576200107a62000fd9565b5b620010868262000e23565b9050602081019050919050565b82818337600083830152505050565b6000620010b9620010b3846200105d565b6200103e565b905082815260208101848484011115620010d857620010d762000fd4565b5b620010e584828562001093565b509392505050565b600082601f83011262001105576200110462000fcf565b5b813562001117848260208601620010a2565b91505092915050565b600067ffffffffffffffff8211156200113e576200113d62000fd9565b5b602082029050602081019050919050565b600080fd5b60006200116b620011658462001120565b6200103e565b905080838252602082019050602084028301858111156200119157620011906200114f565b5b835b81811015620011be5780620011a9888262000ee7565b84526020840193505060208101905062001193565b5050509392505050565b600082601f830112620011e057620011df62000fcf565b5b8135620011f284826020860162001154565b91505092915050565b600067ffffffffffffffff82111562001219576200121862000fd9565b5b602082029050602081019050919050565b6000620012416200123b84620011fb565b6200103e565b905080838252602082019050602084028301858111156200126757620012666200114f565b5b835b81811015620012b557803567ffffffffffffffff81111562001290576200128f62000fcf565b5b8086016200129f8982620010ed565b8552602085019450505060208101905062001269565b5050509392505050565b600082601f830112620012d757620012d662000fcf565b5b8135620012e98482602086016200122a565b91505092915050565b6000806000606084860312156200130e576200130d62000d4f565b5b600084013567ffffffffffffffff8111156200132f576200132e62000d54565b5b6200133d86828701620010ed565b935050602084013567ffffffffffffffff81111562001361576200136062000d54565b5b6200136f86828701620011c8565b925050604084013567ffffffffffffffff81111562001393576200139262000d54565b5b620013a186828701620012bf565b9150509250925092565b600060208284031215620013c457620013c362000d4f565b5b6000620013d48482850162000d7d565b91505092915050565b6000819050919050565b60006200140862001402620013fc8462000e99565b620013dd565b62000e99565b9050919050565b60006200141c82620013e7565b9050919050565b600062001430826200140f565b9050919050565b620014428162001423565b82525050565b60006020820190506200145f600083018462001437565b92915050565b7f4e487b7100000000000000000000000000000000000000000000000000000000600052603260045260246000fd5b6000620014ab620014a5846200105d565b6200103e565b905082815260208101848484011115620014ca57620014c962000fd4565b5b620014d784828562000df7565b509392505050565b600082601f830112620014f757620014f662000fcf565b5b81516200150984826020860162001494565b91505092915050565b6000602082840312156200152b576200152a62000d4f565b5b600082015167ffffffffffffffff8111156200154c576200154b62000d54565b5b6200155a84828501620014df565b91505092915050565b6200156e8162000eb9565b82525050565b60006020820190506200158b600083018462001563565b92915050565b600081519050620015a28162000d63565b92915050565b600060208284031215620015c157620015c062000d4f565b5b6000620015d18482850162001591565b91505092915050565b6000604082019050620015f1600083018562000f45565b62001600602083018462001563565b9392505050565b60006060820190506200161e600083018662001563565b6200162d602083018562000f45565b6200163c604083018462000f45565b949350505050565b600081519050919050565b600082825260208201905092915050565b6000819050602082019050919050565b6200167b8162000eb9565b82525050565b60006200168f838362001670565b60208301905092915050565b6000602082019050919050565b6000620016b58262001644565b620016c181856200164f565b9350620016ce8362001660565b8060005b8381101562001705578151620016e9888262001681565b9750620016f6836200169b565b925050600181019050620016d2565b5085935050505092915050565b600081519050919050565b600082825260208201905092915050565b6000819050602082019050919050565b600082825260208201905092915050565b60006200175c8262000ddb565b6200176881856200173e565b93506200177a81856020860162000df7565b620017858162000e23565b840191505092915050565b60006200179e83836200174f565b905092915050565b6000602082019050919050565b6000620017c08262001712565b620017cc81856200171d565b935083602082028501620017e0856200172e565b8060005b8581101562001822578484038952815162001800858262001790565b94506200180d83620017a6565b925060208a01995050600181019050620017e4565b50829750879550505050505092915050565b60006080820190506200184b600083018762001563565b81810360208301526200185f818662000e34565b90508181036040830152620018758185620016a8565b905081810360608301526200188b8184620017b3565b90509594505050505056fe608060405260646002553480156200001657600080fd5b50604051620025f0380380620025f083398181016040528101906200003c919062000666565b33600460006101000a81548173ffffffffffffffffffffffffffffffffffffffff021916908373ffffffffffffffffffffffffffffffffffffffff16021790555083600560006101000a81548173ffffffffffffffffffffffffffffffffffffffff021916908373ffffffffffffffffffffffffffffffffffffffff1602179055508260069081620000cf919062000980565b508160079080519060200190620000e8929190620001ee565b50805160018190555060005b82518110156200017757600254600360008584815181106200011b576200011a62000a67565b5b602002602001015173ffffffffffffffffffffffffffffffffffffffff1673ffffffffffffffffffffffffffffffffffffffff1681526020019081526020016000208190555080806200016e9062000ac5565b915050620000f4565b5060005b8151811015620001e35760008060008381526020019081526020016000209050828281518110620001b157620001b062000a67565b5b6020026020010151816000019081620001cb919062000980565b50508080620001da9062000ac5565b9150506200017b565b505050505062000b12565b8280548282559060005260206000209081019282156200026a579160200282015b82811115620002695782518260006101000a81548173ffffffffffffffffffffffffffffffffffffffff021916908373ffffffffffffffffffffffffffffffffffffffff160217905550916020019190600101906200020f565b5b5090506200027991906200027d565b5090565b5b80821115620002985760008160009055506001016200027e565b5090565b6000604051905090565b600080fd5b600080fd5b600073ffffffffffffffffffffffffffffffffffffffff82169050919050565b6000620002dd82620002b0565b9050919050565b620002ef81620002d0565b8114620002fb57600080fd5b50565b6000815190506200030f81620002e4565b92915050565b600080fd5b600080fd5b6000601f19601f8301169050919050565b7f4e487b7100000000000000000000000000000000000000000000000000000000600052604160045260246000fd5b6200036a826200031f565b810181811067ffffffffffffffff821117156200038c576200038b62000330565b5b80604052505050565b6000620003a16200029c565b9050620003af82826200035f565b919050565b600067ffffffffffffffff821115620003d257620003d162000330565b5b620003dd826200031f565b9050602081019050919050565b60005b838110156200040a578082015181840152602081019050620003ed565b60008484015250505050565b60006200042d6200042784620003b4565b62000395565b9050828152602081018484840111156200044c576200044b6200031a565b5b62000459848285620003ea565b509392505050565b600082601f83011262000479576200047862000315565b5b81516200048b84826020860162000416565b91505092915050565b600067ffffffffffffffff821115620004b257620004b162000330565b5b602082029050602081019050919050565b600080fd5b6000620004df620004d98462000494565b62000395565b90508083825260208201905060208402830185811115620005055762000504620004c3565b5b835b818110156200053257806200051d8882620002fe565b84526020840193505060208101905062000507565b5050509392505050565b600082601f83011262000554576200055362000315565b5b815162000566848260208601620004c8565b91505092915050565b600067ffffffffffffffff8211156200058d576200058c62000330565b5b602082029050602081019050919050565b6000620005b5620005af846200056f565b62000395565b90508083825260208201905060208402830185811115620005db57620005da620004c3565b5b835b818110156200062957805167ffffffffffffffff81111562000604576200060362000315565b5b80860162000613898262000461565b85526020850194505050602081019050620005dd565b5050509392505050565b600082601f8301126200064b576200064a62000315565b5b81516200065d8482602086016200059e565b91505092915050565b60008060008060808587031215620006835762000682620002a6565b5b60006200069387828801620002fe565b945050602085015167ffffffffffffffff811115620006b757620006b6620002ab565b5b620006c58782880162000461565b935050604085015167ffffffffffffffff811115620006e957620006e8620002ab565b5b620006f7878288016200053c565b925050606085015167ffffffffffffffff8111156200071b576200071a620002ab565b5b620007298782880162000633565b91505092959194509250565b600081519050919050565b7f4e487b7100000000000000000000000000000000000000000000000000000000600052602260045260246000fd5b600060028204905060018216806200078857607f821691505b6020821081036200079e576200079d62000740565b5b50919050565b60008190508160005260206000209050919050565b60006020601f8301049050919050565b600082821b905092915050565b600060088302620008087fffffffffffffffffffffffffffffffffffffffffffffffffffffffffffffffff82620007c9565b620008148683620007c9565b95508019841693508086168417925050509392505050565b6000819050919050565b6000819050919050565b6000620008616200085b62000855846200082c565b62000836565b6200082c565b9050919050565b6000819050919050565b6200087d8362000840565b620008956200088c8262000868565b848454620007d6565b825550505050565b600090565b620008ac6200089d565b620008b981848462000872565b505050565b5b81811015620008e157620008d5600082620008a2565b600181019050620008bf565b5050565b601f8211156200093057620008fa81620007a4565b6200090584620007b9565b8101602085101562000915578190505b6200092d6200092485620007b9565b830182620008be565b50505b505050565b600082821c905092915050565b6000620009556000198460080262000935565b1980831691505092915050565b600062000970838362000942565b9150826002028217905092915050565b6200098b8262000735565b67ffffffffffffffff811115620009a757620009a662000330565b5b620009b382546200076f565b620009c0828285620008e5565b600060209050601f831160018114620009f85760008415620009e3578287015190505b620009ef858262000962565b86555062000a5f565b601f19841662000a0886620007a4565b60005b8281101562000a325784890151825560018201915060208501945060208101905062000a0b565b8683101562000a52578489015162000a4e601f89168262000942565b8355505b6001600288020188555050505b505050505050565b7f4e487b7100000000000000000000000000000000000000000000000000000000600052603260045260246000fd5b7f4e487b7100000000000000000000000000000000000000000000000000000000600052601160045260246000fd5b600062000ad2826200082c565b91507fffffffffffffffffffffffffffffffffffffffffffffffffffffffffffffffff820362000b075762000b0662000a96565b5b600182019050919050565b611ace8062000b226000396000f3fe6080604052600436106101145760003560e01c80639df10dff116100a0578063c2b939fe11610064578063c2b939fe146103f9578063d7921a5b14610424578063de29278914610461578063e32fe90b1461048c578063f5f52f90146104b757610114565b80639df10dff146102e95780639e336894146103265780639fd18e8814610363578063a44290de146103a0578063b6c9ebbb146103bc57610114565b80634a79d50c116100e75780634a79d50c146101fd5780634c1b8ffd146102285780634e28b8091461025357806357344e6f1461026f5780637f2af6d5146102ac57610114565b806327d4dbe91461011957806340069e7b14610144578063409e220514610181578063473a6d52146101c0575b600080fd5b34801561012557600080fd5b5061012e6104f4565b60405161013b91906113c5565b60405180910390f35b34801561015057600080fd5b5061016b60048036038101906101669190611411565b6104fa565b60405161017891906113c5565b60405180910390f35b34801561018d57600080fd5b506101a860048036038101906101a39190611411565b610519565b6040516101b7939291906114ce565b60405180910390f35b3480156101cc57600080fd5b506101e760048036038101906101e29190611411565b6105cb565b6040516101f491906113c5565b60405180910390f35b34801561020957600080fd5b506102126105ec565b60405161021f919061150c565b60405180910390f35b34801561023457600080fd5b5061023d61067a565b60405161024a91906113c5565b60405180910390f35b61026d6004803603810190610268919061158c565b61067f565b005b34801561027b57600080fd5b50610296600480360381019061029191906115df565b610ad2565b6040516102a391906113c5565b60405180910390f35b3480156102b857600080fd5b506102d360048036038101906102ce9190611411565b610b1b565b6040516102e091906113c5565b60405180910390f35b3480156102f557600080fd5b50610310600480360381019061030b9190611411565b610b3a565b60405161031d919061150c565b60405180910390f35b34801561033257600080fd5b5061034d600480360381019061034891906115df565b610be1565b60405161035a9190611627565b60405180910390f35b34801561036f57600080fd5b5061038a60048036038101906103859190611642565b610c8f565b60405161039791906113c5565b60405180910390f35b6103ba60048036038101906103b5919061158c565b610cec565b005b3480156103c857600080fd5b506103e360048036038101906103de9190611642565b61113f565b6040516103f091906113c5565b60405180910390f35b34801561040557600080fd5b5061040e61119c565b60405161041b91906113c5565b60405180910390f35b34801561043057600080fd5b5061044b600480360381019061044691906116ae565b611201565b60405161045891906113c5565b60405180910390f35b34801561046d57600080fd5b506104766112c0565b60405161048391906113c5565b60405180910390f35b34801561049857600080fd5b506104a161138e565b6040516104ae91906113c5565b60405180910390f35b3480156104c357600080fd5b506104de60048036038101906104d991906115df565b611394565b6040516104eb91906113c5565b60405180910390f35b60025481565b6000806000838152602001908152602001600020600301549050919050565b600060205280600052604060002060009150905080600001805461053c90611730565b80601f016020809104026020016040519081016040528092919081815260200182805461056890611730565b80156105b55780601f1061058a576101008083540402835291602001916105b5565b820191906000526020600020905b81548152906001019060200180831161059857829003601f168201915b5050505050908060030154908060040154905083565b6000600182836105db9190611790565b6105e59190611790565b9050919050565b600680546105f990611730565b80601f016020809104026020016040519081016040528092919081815260200182805461062590611730565b80156106725780601f1061064757610100808354040283529160200191610672565b820191906000526020600020905b81548152906001019060200180831161065557829003601f168201915b505050505081565b600181565b600460009054906101000a900473ffffffffffffffffffffffffffffffffffffffff1673ffffffffffffffffffffffffffffffffffffffff163373ffffffffffffffffffffffffffffffffffffffff161461070f576040517f08c379a00000000000000000000000000000000000000000000000000000000081526004016107069061181e565b60405180910390fd5b61071883610be1565b610757576040517f08c379a000000000000000000000000000000000000000000000000000000000815260040161074e9061188a565b60405180910390fd5b600080600084815260200190815260200160002090506000808260010160008773ffffffffffffffffffffffffffffffffffffffff1673ffffffffffffffffffffffffffffffffffffffff16815260200190815260200160002054116107be5760006107c1565b60015b9050600081610811578260020160008773ffffffffffffffffffffffffffffffffffffffff1673ffffffffffffffffffffffffffffffffffffffff16815260200190815260200160002054610854565b8260010160008773ffffffffffffffffffffffffffffffffffffffff1673ffffffffffffffffffffffffffffffffffffffff168152602001908152602001600020545b905061085f846105cb565b610868826105cb565b600360008973ffffffffffffffffffffffffffffffffffffffff1673ffffffffffffffffffffffffffffffffffffffff168152602001908152602001600020546108b291906118aa565b10156108f3576040517f08c379a00000000000000000000000000000000000000000000000000000000081526004016108ea9061192a565b60405180910390fd5b6108fc846105cb565b610905826105cb565b600360008973ffffffffffffffffffffffffffffffffffffffff1673ffffffffffffffffffffffffffffffffffffffff1681526020019081526020016000205461094f91906118aa565b610959919061194a565b600360008873ffffffffffffffffffffffffffffffffffffffff1673ffffffffffffffffffffffffffffffffffffffff1681526020019081526020016000208190555060008360010160008873ffffffffffffffffffffffffffffffffffffffff1673ffffffffffffffffffffffffffffffffffffffff16815260200190815260200160002081905550838360020160008873ffffffffffffffffffffffffffffffffffffffff1673ffffffffffffffffffffffffffffffffffffffff168152602001908152602001600020819055508115610a6a5780836003016000828254610a43919061194a565b9250508190555083836004016000828254610a5e91906118aa565b92505081905550610a8e565b80848460040154610a7b91906118aa565b610a85919061194a565b83600401819055505b7f67b60bc862e9c013a238015361df4bb95a4abfe78309ba4a4d7a04d2fe29e43285856000604051610ac29392919061197e565b60405180910390a1505050505050565b6000600360008373ffffffffffffffffffffffffffffffffffffffff1673ffffffffffffffffffffffffffffffffffffffff168152602001908152602001600020549050919050565b6000806000838152602001908152602001600020600401549050919050565b60606000808381526020019081526020016000206000018054610b5c90611730565b80601f0160208091040260200160405190810160405280929190818152602001828054610b8890611730565b8015610bd55780601f10610baa57610100808354040283529160200191610bd5565b820191906000526020600020905b815481529060010190602001808311610bb857829003601f168201915b50505050509050919050565b600080600090505b600780549050811015610c84578273ffffffffffffffffffffffffffffffffffffffff1660078281548110610c2157610c206119b5565b5b9060005260206000200160009054906101000a900473ffffffffffffffffffffffffffffffffffffffff1673ffffffffffffffffffffffffffffffffffffffff1603610c71576001915050610c8a565b8080610c7c906119e4565b915050610be9565b50600090505b919050565b600080600084815260200190815260200160002060010160008373ffffffffffffffffffffffffffffffffffffffff1673ffffffffffffffffffffffffffffffffffffffff16815260200190815260200160002054905092915050565b600460009054906101000a900473ffffffffffffffffffffffffffffffffffffffff1673ffffffffffffffffffffffffffffffffffffffff163373ffffffffffffffffffffffffffffffffffffffff1614610d7c576040517f08c379a0000000000000000000000000000000000000000000000000000000008152600401610d739061181e565b60405180910390fd5b610d8583610be1565b610dc4576040517f08c379a0000000000000000000000000000000000000000000000000000000008152600401610dbb90611a78565b60405180910390fd5b600080600084815260200190815260200160002090506000808260010160008773ffffffffffffffffffffffffffffffffffffffff1673ffffffffffffffffffffffffffffffffffffffff1681526020019081526020016000205411610e2b576000610e2e565b60015b9050600081610e7e578260020160008773ffffffffffffffffffffffffffffffffffffffff1673ffffffffffffffffffffffffffffffffffffffff16815260200190815260200160002054610ec1565b8260010160008773ffffffffffffffffffffffffffffffffffffffff1673ffffffffffffffffffffffffffffffffffffffff168152602001908152602001600020545b9050610ecc846105cb565b610ed5826105cb565b600360008973ffffffffffffffffffffffffffffffffffffffff1673ffffffffffffffffffffffffffffffffffffffff16815260200190815260200160002054610f1f91906118aa565b1015610f60576040517f08c379a0000000000000000000000000000000000000000000000000000000008152600401610f579061192a565b60405180910390fd5b610f69846105cb565b610f72826105cb565b600360008973ffffffffffffffffffffffffffffffffffffffff1673ffffffffffffffffffffffffffffffffffffffff16815260200190815260200160002054610fbc91906118aa565b610fc6919061194a565b600360008873ffffffffffffffffffffffffffffffffffffffff1673ffffffffffffffffffffffffffffffffffffffff16815260200190815260200160002081905550838360010160008873ffffffffffffffffffffffffffffffffffffffff1673ffffffffffffffffffffffffffffffffffffffff1681526020019081526020016000208190555060008360020160008873ffffffffffffffffffffffffffffffffffffffff1673ffffffffffffffffffffffffffffffffffffffff1681526020019081526020016000208190555081156110c457808484600301546110ad91906118aa565b6110b7919061194a565b83600301819055506110fb565b838360030160008282546110d891906118aa565b92505081905550808360040160008282546110f3919061194a565b925050819055505b7f67b60bc862e9c013a238015361df4bb95a4abfe78309ba4a4d7a04d2fe29e4328585600160405161112f9392919061197e565b60405180910390a1505050505050565b600080600084815260200190815260200160002060020160008373ffffffffffffffffffffffffffffffffffffffff1673ffffffffffffffffffffffffffffffffffffffff16815260200190815260200160002054905092915050565b6000806000905060005b6001548110156111f957816000808381526020019081526020016000206004015411156111e6576000808281526020019081526020016000206004015491505b80806111f1906119e4565b9150506111a6565b508091505090565b600081156112635760008085815260200190815260200160002060010160008473ffffffffffffffffffffffffffffffffffffffff1673ffffffffffffffffffffffffffffffffffffffff1681526020019081526020016000205490506112b9565b60008085815260200190815260200160002060020160008473ffffffffffffffffffffffffffffffffffffffff1673ffffffffffffffffffffffffffffffffffffffff1681526020019081526020016000205490505b9392505050565b600080600090506000805b6001548110156113855781600080838152602001908152602001600020600401546112f461119c565b6000808581526020019081526020016000206003015461131491906118aa565b61131e919061194a565b1115611372578092506000808281526020019081526020016000206004015461134561119c565b6000808481526020019081526020016000206003015461136591906118aa565b61136f919061194a565b91505b808061137d906119e4565b9150506112cb565b50819250505090565b60015481565b60036020528060005260406000206000915090505481565b6000819050919050565b6113bf816113ac565b82525050565b60006020820190506113da60008301846113b6565b92915050565b600080fd5b6113ee816113ac565b81146113f957600080fd5b50565b60008135905061140b816113e5565b92915050565b600060208284031215611427576114266113e0565b5b6000611435848285016113fc565b91505092915050565b600081519050919050565b600082825260208201905092915050565b60005b8381101561147857808201518184015260208101905061145d565b60008484015250505050565b6000601f19601f8301169050919050565b60006114a08261143e565b6114aa8185611449565b93506114ba81856020860161145a565b6114c381611484565b840191505092915050565b600060608201905081810360008301526114e88186611495565b90506114f760208301856113b6565b61150460408301846113b6565b949350505050565b600060208201905081810360008301526115268184611495565b905092915050565b600073ffffffffffffffffffffffffffffffffffffffff82169050919050565b60006115598261152e565b9050919050565b6115698161154e565b811461157457600080fd5b50565b60008135905061158681611560565b92915050565b6000806000606084860312156115a5576115a46113e0565b5b60006115b386828701611577565b93505060206115c4868287016113fc565b92505060406115d5868287016113fc565b9150509250925092565b6000602082840312156115f5576115f46113e0565b5b600061160384828501611577565b91505092915050565b60008115159050919050565b6116218161160c565b82525050565b600060208201905061163c6000830184611618565b92915050565b60008060408385031215611659576116586113e0565b5b6000611667858286016113fc565b925050602061167885828601611577565b9150509250929050565b61168b8161160c565b811461169657600080fd5b50565b6000813590506116a881611682565b92915050565b6000806000606084860312156116c7576116c66113e0565b5b60006116d5868287016113fc565b93505060206116e686828701611577565b92505060406116f786828701611699565b9150509250925092565b7f4e487b7100000000000000000000000000000000000000000000000000000000600052602260045260246000fd5b6000600282049050600182168061174857607f821691505b60208210810361175b5761175a611701565b5b50919050565b7f4e487b7100000000000000000000000000000000000000000000000000000000600052601160045260246000fd5b600061179b826113ac565b91506117a6836113ac565b92508282026117b4816113ac565b915082820484148315176117cb576117ca611761565b5b5092915050565b7f4e6f742063616c6c656420766961204661630000000000000000000000000000600082015250565b6000611808601283611449565b9150611813826117d2565b602082019050919050565b60006020820190508181036000830152611837816117fb565b9050919050565b7f4e6f7420656c696769626c650000000000000000000000000000000000000000600082015250565b6000611874600c83611449565b915061187f8261183e565b602082019050919050565b600060208201905081810360008301526118a381611867565b9050919050565b60006118b5826113ac565b91506118c0836113ac565b92508282019050808211156118d8576118d7611761565b5b92915050565b7f4e6f7420656e6f75676820637265646974000000000000000000000000000000600082015250565b6000611914601183611449565b915061191f826118de565b602082019050919050565b6000602082019050818103600083015261194381611907565b9050919050565b6000611955826113ac565b9150611960836113ac565b925082820390508181111561197857611977611761565b5b92915050565b600060608201905061199360008301866113b6565b6119a060208301856113b6565b6119ad6040830184611618565b949350505050565b7f4e487b7100000000000000000000000000000000000000000000000000000000600052603260045260246000fd5b60006119ef826113ac565b91507fffffffffffffffffffffffffffffffffffffffffffffffffffffffffffffffff8203611a2157611a20611761565b5b600182019050919050565b7f4e6f7420456c696769626c650000000000000000000000000000000000000000600082015250565b6000611a62600c83611449565b9150611a6d82611a2c565b602082019050919050565b60006020820190508181036000830152611a9181611a55565b905091905056fea2646970667358221220989c6c85ea2a990f9ebd9fcd84056c1651aac5d82451b0882e54044b31345a2d64736f6c63430008110033a2646970667358221220b264eee058f97b26ed0857c9ad4f04e7b1ff908bf00758b9d6aba8320e8bd20464736f6c63430008110033",
  "devdoc": {
    "kind": "dev",
    "methods": {},
    "version": 1
  },
  "userdoc": {
    "kind": "user",
    "methods": {},
    "version": 1
  },
  "storageLayout": {
    "storage": [
      {
        "astId": 6,
        "contract": "contracts/Factory.sol:Factory",
        "label": "PollArray",
        "offset": 0,
        "slot": "0",
        "type": "t_array(t_contract(Poll)912)dyn_storage"
      }
    ],
    "types": {
      "t_array(t_contract(Poll)912)dyn_storage": {
        "base": "t_contract(Poll)912",
        "encoding": "dynamic_array",
        "label": "contract Poll[]",
        "numberOfBytes": "32"
      },
      "t_contract(Poll)912": {
        "encoding": "inplace",
        "label": "contract Poll",
        "numberOfBytes": "20"
      }
    }
  }
}